{
  "abi": [
    {
      "inputs": [
        {
          "internalType": "address",
          "name": "governance_owner",
          "type": "address"
        },
        {
          "internalType": "address",
          "name": "bot",
          "type": "address"
        },
        {
          "internalType": "address",
          "name": "swap_router",
          "type": "address"
        }
      ],
      "stateMutability": "nonpayable",
      "type": "constructor"
    },
    {
      "anonymous": false,
      "inputs": [
        {
          "indexed": true,
          "internalType": "bytes32",
          "name": "role",
          "type": "bytes32"
        },
        {
          "indexed": true,
          "internalType": "bytes32",
          "name": "previousAdminRole",
          "type": "bytes32"
        },
        {
          "indexed": true,
          "internalType": "bytes32",
          "name": "newAdminRole",
          "type": "bytes32"
        }
      ],
      "name": "RoleAdminChanged",
      "type": "event"
    },
    {
      "anonymous": false,
      "inputs": [
        {
          "indexed": true,
          "internalType": "bytes32",
          "name": "role",
          "type": "bytes32"
        },
        {
          "indexed": true,
          "internalType": "address",
          "name": "account",
          "type": "address"
        },
        {
          "indexed": true,
          "internalType": "address",
          "name": "sender",
          "type": "address"
        }
      ],
      "name": "RoleGranted",
      "type": "event"
    },
    {
      "anonymous": false,
      "inputs": [
        {
          "indexed": true,
          "internalType": "bytes32",
          "name": "role",
          "type": "bytes32"
        },
        {
          "indexed": true,
          "internalType": "address",
          "name": "account",
          "type": "address"
        },
        {
          "indexed": true,
          "internalType": "address",
          "name": "sender",
          "type": "address"
        }
      ],
      "name": "RoleRevoked",
      "type": "event"
    },
    {
      "inputs": [],
      "name": "BOT_ROLE",
      "outputs": [
        {
          "internalType": "bytes32",
          "name": "",
          "type": "bytes32"
        }
      ],
      "stateMutability": "view",
      "type": "function"
    },
    {
      "inputs": [],
      "name": "DEFAULT_ADMIN_ROLE",
      "outputs": [
        {
          "internalType": "bytes32",
          "name": "",
          "type": "bytes32"
        }
      ],
      "stateMutability": "view",
      "type": "function"
    },
    {
      "inputs": [],
      "name": "STATE_ADMIN_ROLE",
      "outputs": [
        {
          "internalType": "bytes32",
          "name": "",
          "type": "bytes32"
        }
      ],
      "stateMutability": "view",
      "type": "function"
    },
    {
      "inputs": [
        {
          "internalType": "address",
          "name": "from",
          "type": "address"
        },
        {
          "internalType": "address",
          "name": "to",
          "type": "address"
        },
        {
          "internalType": "uint256",
          "name": "amount",
          "type": "uint256"
        }
      ],
      "name": "addTransaction",
      "outputs": [],
      "stateMutability": "nonpayable",
      "type": "function"
    },
    {
      "inputs": [
        {
          "internalType": "uint256",
          "name": "swap_root",
          "type": "uint256"
        }
      ],
      "name": "checkHistoricalRoot",
      "outputs": [
        {
          "internalType": "bool",
          "name": "",
          "type": "bool"
        }
      ],
      "stateMutability": "view",
      "type": "function"
    },
    {
      "inputs": [],
      "name": "doSwap",
      "outputs": [],
      "stateMutability": "nonpayable",
      "type": "function"
    },
    {
      "inputs": [],
      "name": "feeTier",
      "outputs": [
        {
          "internalType": "uint24",
          "name": "",
          "type": "uint24"
        }
      ],
      "stateMutability": "view",
      "type": "function"
    },
    {
      "inputs": [],
      "name": "getBatchNumber",
      "outputs": [
        {
          "internalType": "uint256",
          "name": "",
          "type": "uint256"
        }
      ],
      "stateMutability": "view",
      "type": "function"
    },
    {
      "inputs": [
        {
          "internalType": "bytes32",
          "name": "role",
          "type": "bytes32"
        }
      ],
      "name": "getRoleAdmin",
      "outputs": [
        {
          "internalType": "bytes32",
          "name": "",
          "type": "bytes32"
        }
      ],
      "stateMutability": "view",
      "type": "function"
    },
    {
      "inputs": [
        {
          "internalType": "bytes32",
          "name": "role",
          "type": "bytes32"
        },
        {
          "internalType": "address",
          "name": "account",
          "type": "address"
        }
      ],
      "name": "grantRole",
      "outputs": [],
      "stateMutability": "nonpayable",
      "type": "function"
    },
    {
      "inputs": [
        {
          "internalType": "bytes32",
          "name": "role",
          "type": "bytes32"
        },
        {
          "internalType": "address",
          "name": "account",
          "type": "address"
        }
      ],
      "name": "hasRole",
      "outputs": [
        {
          "internalType": "bool",
          "name": "",
          "type": "bool"
        }
      ],
      "stateMutability": "view",
      "type": "function"
    },
    {
      "inputs": [
        {
          "internalType": "bytes32",
          "name": "role",
          "type": "bytes32"
        },
        {
          "internalType": "address",
          "name": "account",
          "type": "address"
        }
      ],
      "name": "renounceRole",
      "outputs": [],
      "stateMutability": "nonpayable",
      "type": "function"
    },
    {
      "inputs": [
        {
          "internalType": "bytes32",
          "name": "role",
          "type": "bytes32"
        },
        {
          "internalType": "address",
          "name": "account",
          "type": "address"
        }
      ],
      "name": "revokeRole",
      "outputs": [],
      "stateMutability": "nonpayable",
      "type": "function"
    },
    {
      "inputs": [
        {
          "internalType": "bytes4",
          "name": "interfaceId",
          "type": "bytes4"
        }
      ],
      "name": "supportsInterface",
      "outputs": [
        {
          "internalType": "bool",
          "name": "",
          "type": "bool"
        }
      ],
      "stateMutability": "view",
      "type": "function"
    },
    {
      "inputs": [],
      "name": "swapRouter",
      "outputs": [
        {
          "internalType": "contract ISwapRouter",
          "name": "",
          "type": "address"
        }
      ],
      "stateMutability": "view",
      "type": "function"
    },
    {
      "inputs": [
        {
          "components": [
            {
              "internalType": "uint256[2]",
              "name": "a",
              "type": "uint256[2]"
            },
            {
              "internalType": "uint256[2][2]",
              "name": "b",
              "type": "uint256[2][2]"
            },
            {
              "internalType": "uint256[2]",
              "name": "c",
              "type": "uint256[2]"
            }
          ],
          "internalType": "struct SwapProofVerifier.Proof[]",
          "name": "updateProofs",
          "type": "tuple[]"
        },
        {
          "internalType": "uint256[]",
          "name": "newRoots",
          "type": "uint256[]"
        },
        {
          "internalType": "uint256[]",
          "name": "swap_event_hashes",
          "type": "uint256[]"
        }
      ],
      "name": "updateRoot",
      "outputs": [],
      "stateMutability": "nonpayable",
      "type": "function"
    }
  ],
  "bytecode": {
    "object": "0x60a0346200026057601f62002aab38819003918201601f19168301926001600160401b0392909183851183861017620002655781606092849260409788528339810103126200026057829162000055826200027b565b91602090620000668282016200027b565b6001600160a01b0395909186916200007f91016200027b565b1660805260009384805284835285878620911690818652835260ff87862054161562000227575b507ff7054b28837a3e0f0fcdf0631d7a1f2c54f272601d37d24ed1fa836bd1c2ae94808552848352868520338652835260ff878620541615620001ed575b507f6d5c9827c1f410bbb61d3b2a0a34b6b30492d9a1fd38588edca7ec4562ab9c9b9182855284815285878620921691828652815260ff878620541615620001b3575b5050508160045581600355835190610c1a80830191838310908311176200019f5790829162001e718339039082f09081156200019457501660018060a01b0319600154161760015551611be090816200029182396080518181816103b50152818161068401526108130152f35b8351903d90823e3d90fd5b634e487b7160e01b84526041600452602484fd5b8285528481528685208286529052858420805460ff19166001179055339160008051602062002a8b8339815191528580a438808062000127565b8085528483528685203386528352868520600160ff198254161790553390339060008051602062002a8b8339815191528780a438620000e4565b8480528483528685208186528352868520805460ff1916600117905533908560008051602062002a8b8339815191528180a438620000a6565b600080fd5b634e487b7160e01b600052604160045260246000fd5b51906001600160a01b0382168203620002605756fe608080604052600436101561001357600080fd5b600090813560e01c90816301ffc9a71461148257508063174fa8d01461140a578063248a9ca3146113de5780632f2ff15d1461133057806336568abe1461129d5780636d6516c01461127f57806372f5d98a1461126257806391d148541461121a578063a217fddf146111fe578063a5da221714610b9d578063a956253a14610b62578063b150377414610b27578063bdf72599146103e4578063c31c9c071461039f578063d547741f1461035f5763fe73b27f146100d157600080fd5b3461035c57606036600319011261035c576001600160a01b0360043581811690819003610357576101006114d7565b3360009081527f016058b69bc4f430f8fb5c6c018c4cb578a9d48ab4b287d3ccb1e79b08276abf6020908152604090912054909391907ff7054b28837a3e0f0fcdf0631d7a1f2c54f272601d37d24ed1fa836bd1c2ae949060ff161561019c57509161018391600594936040519261017784611846565b83521683820152611a55565b835252604081206101976044358254611911565b905580f35b846101a63361192f565b6040516101b281611861565b604281528281019360603686378151156103415760308553815160019081101561034157607860218401536041905b8082116102e75750506102a4579061026d60486044949360405196879161025e8784019676020b1b1b2b9b9a1b7b73a3937b61d1030b1b1b7bab73a1604d1b8852610235815180928b603789019101611823565b8401917001034b99036b4b9b9b4b733903937b6329607d1b603784015251809386840190611823565b0103602881018752018561187c565b61029660405194859362461bcd60e51b8552600485015251809281602486015285850190611823565b601f01601f19168101030190fd5b6064836040519062461bcd60e51b825280600483015260248201527f537472696e67733a20686578206c656e67746820696e73756666696369656e746044820152fd5b9091600f81166010811015610341576f181899199a1a9b1b9c1cb0b131b232b360811b901a610316848661191e565b5360041c91801561032b5760001901906101e1565b634e487b7160e01b600052601160045260246000fd5b634e487b7160e01b600052603260045260246000fd5b600080fd5b80fd5b503461035c57604036600319011261035c5761039c60043561037f6114d7565b90808452836020526103976001604086200154611718565b61189d565b80f35b503461035c578060031936011261035c576040517f00000000000000000000000000000000000000000000000000000000000000006001600160a01b03168152602090f35b503461035c578060031936011261035c576103fd61151d565b600a5480610a5e576006805468010000000000000000928382116108ae5781600a55808210610a0a575b50600080516020611b8b833981519152600a600052600080516020611b6b833981519152906000905b8382106109b75750505050825b81548110156104ff576104d69082600052600161049361048e83831b600080516020611b8b83398151915201611adf565b611a55565b86526020906005825260408720600983528160408920918083036104ed575b50505060078252600b60408820925260408720918083036104db575b505050611aa8565b61045d565b805483558101549101553880806104ce565b805483558101549101553881816104b2565b5060005b815481101561055f5761055a90826000526000600161053661048e84831b600080516020611b8b83398151915201611adf565b82526007602060058152838360408220828155015552604082208281550155611aa8565b610503565b508054906000815581610960575b50506003546001810180911161094c578060035560045560025490811015610938576001810180600255811015610924576002825242907f405787fa12a823e0f2b7631cc41b3ba8828b3321ca811111fa75cd3aa3bb5ace0155600a54815b8181106105d7578280f35b6105e96105e382611ab7565b50611adf565b906105f382611a55565b80855260096020526040852060405161060b81611846565b81548082526001909201546020918201528451940151604051946001600160a01b03908116911660a086018087116001600160401b03909111176108ae5760a0860160405281865260208601528160408601528660608601528660808601526040519163095ea7b360e01b602084015260018060a01b037f00000000000000000000000000000000000000000000000000000000000000001660248401526044830152604482528160808101106001600160401b036080840111176108ae5781879291608084930160405282602083519301915af13d1561091d573d6001600160401b0381116108ae576040519061070d601f8201601f19166020018361187c565b81523d87602083013e5b816108ee575b50156108c4578251602084015160408086015160608701516080909701519151966001600160a01b03928316949093919291821691166001600160401b036101008901908111908911176108ae57610100880160409081529088526020808901928352610bb8828a019081523360608b019081524260808c0190815260a08c0196875260c08c0197885260e08c01988952935163414bf38960e01b81529a516001600160a01b0390811660048d01529451851660248c0152905162ffffff1660448b015251831660648a015290516084890152915160a4880152915160c48701529151811660e4860152849061010490829089907f0000000000000000000000000000000000000000000000000000000000000000165af19081156108a357859161086d575b61086893508552600560205261086160016040872001918254611911565b9055611aa8565b6105cc565b90506020833d60201161089b575b816108886020938361187c565b8101031261035757610868925190610843565b3d915061087b565b6040513d87823e3d90fd5b634e487b7160e01b600052604160045260246000fd5b60405162461bcd60e51b8152602060048201526002602482015261534160f01b6044820152606490fd5b8051801592508215610903575b50503861071d565b6109169250602080918301019101611a3d565b38806108fb565b6060610717565b634e487b7160e01b82526032600452602482fd5b634e487b7160e01b82526041600452602482fd5b634e487b7160e01b83526011600452602483fd5b6001600160ff1b038216820361032b57600052600190811b600080516020611b8b8339815191520190600080516020611b8b8339815191525b8281106109a6575061056d565b600080825582820155600201610999565b8060019184036109d2575b6002809101930191019091610450565b818060a01b03808254166bffffffffffffffffffffffff60a01b908187541617865583918287019284015416908254161790556109c2565b6001600160ff1b03818116820361032b578216820361032b576001600080516020611b6b83398151915291811b82019183821b015b828110610a4d575050610427565b600080825582820155600201610a3f565b60405162461bcd60e51b815260206004820152608960248201527f6c6173745f616e645f6e656564735f656e7472795f746f5f726f6f742069732060448201527f6e6f7420656d7074792c20796f75206e65656420746f2063616c6c207570646160648201527f7465526f6f7420746f2067657420746865206c61737420726f6f7420696e746f60848201527f2074686520534d54206265666f726520796f7520706572666f726d206120737760a48201526830b8103130ba31b41760b91b60c482015260e490fd5b503461035c578060031936011261035c5760206040517f6d5c9827c1f410bbb61d3b2a0a34b6b30492d9a1fd38588edca7ec4562ab9c9b8152f35b503461035c578060031936011261035c5760206040517ff7054b28837a3e0f0fcdf0631d7a1f2c54f272601d37d24ed1fa836bd1c2ae948152f35b503461035c57606036600319011261035c576001600160401b036004351161035c5736602360043501121561035c576001600160401b03600435600401351161035c573660246004356004013560081b60043501011161035c576024356001600160401b0381116111fa57610c169036906004016114ed565b6044929192356001600160401b0381116111f657610c389036906004016114ed565b610c4393919361151d565b600a54801561113f578060011b8181046002036110525760043560040135149081611135575b508061112c575b156110b057815b600a54811015610f7357610c8d6105e382611ab7565b610c9681611a55565b8452600b60205260408420600160405191610cb083611846565b805483520154602082015282610f3a576001546040516335a5cfcb60e01b815290602090829060049082906001600160a01b03165afa908115610f2f578691610ef9575b50915b838060011b0460021484151715610ee557610d218460011b60043560040135602460043501611b1b565b92600185811b018560011b11610ed1578892918a91610d68878b610d61828c610d5b600183811b0160043560040135602460043501611b1b565b9a611b0b565b3595611b0b565b356008549160018060a01b036020818651169501511694610db06020885198015198610da56040519b6370ed4b8160e01b8d5260048d0190611b2b565b6101048b0190611b2b565b6102048901526102248801526102448701526102648601526102848501526102a48401526102c48301526102e48201526020816103048173__$dc3f29d2aa147a13f516383a5a41ac843d$__5af4908115610ec6578491610e97575b5015610e2c5780610e21610e27928689611b0b565b50611aa8565b610c77565b60405162461bcd60e51b815260206004820152603960248201527f796f7520646964206e6f7420757064617465207468652070726963657320726960448201527f676874203a282c20636865636b20796f75722070726f6f6673000000000000006064820152608490fd5b610eb9915060203d602011610ebf575b610eb1818361187c565b810190611a3d565b38610e0c565b503d610ea7565b6040513d86823e3d90fd5b634e487b7160e01b87526011600452602487fd5b634e487b7160e01b86526011600452602486fd5b90506020813d602011610f27575b81610f146020938361187c565b81010312610f23575138610cf4565b8580fd5b3d9150610f07565b6040513d88823e3d90fd5b6001600160ff1b0383168303610f5f57610f588360011b878a611b0b565b3591610cf7565b634e487b7160e01b85526011600452602485fd5b858484805b600a54811015610fc25780610f9561048e6105e3610fbd94611ab7565b8352600b60206009815284600160408220828155015552826001604082208281550155611aa8565b610f78565b5090600a5482600a5580611066575b506001546000198201936001600160a01b0390911691908185116110525793610ffb918495611b0b565b3590803b1561104e5760248392604051948593849263f2f5a7e560e01b845260048401525af180156110435761102f575080f35b6001600160401b0381116109385760405280f35b6040513d84823e3d90fd5b5050fd5b634e487b7160e01b84526011600452602484fd5b6001600160ff1b038116810361094c57600a8352600080516020611b6b8339815191529060011b8101905b81811061109e5750610fd1565b80846002925584600182015501611091565b60405162461bcd60e51b815260206004820152604860248201527f75706461746550726f6f667320616e64206e6577526f6f7473206d757374206260448201527f6520322a7468652073616d65206c656e677468206173206e756d206f66207377606482015267617020706169727360c01b608482015260a490fd5b50828114610c70565b9050831438610c69565b60405162461bcd60e51b815260206004820152607d60248201527f6c6173745f616e645f6e656564735f656e7472795f746f5f726f6f742069732060448201527f656d7074792c20796f75206e65656420746f2063616c6c20646f53776170207460648201527f6f2067657420746865206c61737420626174636820696e746f2074686520534d60848201527f54206265666f726520796f75207570646174652074686520726f6f742e00000060a482015260c490fd5b8280fd5b5080fd5b503461035c578060031936011261035c57602090604051908152f35b503461035c57604036600319011261035c5760ff604060209261123b6114d7565b60043582528185528282206001600160a01b03909116825284522054604051911615158152f35b503461035c578060031936011261035c576020604051610bb88152f35b503461035c578060031936011261035c576020600354604051908152f35b503461035c57604036600319011261035c576112b76114d7565b336001600160a01b038216036112d35761039c9060043561189d565b60405162461bcd60e51b815260206004820152602f60248201527f416363657373436f6e74726f6c3a2063616e206f6e6c792072656e6f756e636560448201526e103937b632b9903337b91039b2b63360891b6064820152608490fd5b503461035c57604036600319011261035c5760043561134d6114d7565b818352826020526113646001604085200154611718565b818352602083815260408085206001600160a01b039093168086529290915283205460ff1615611392578280f35b818352826020526040832081845260205260408320600160ff1982541617905533917f2f8788117e7eff1d82e926ec794901d17c78024a50270940304540a733656f0d8480a438808280f35b503461035c57602036600319011261035c57600160406020926004358152808452200154604051908152f35b503461035c57602036600319011261035c57600154604051633fd861a760e01b8152600480359082015290602090829060249082906001600160a01b03165afa9081156110435760209291611465575b506040519015158152f35b61147c9150823d8111610ebf57610eb1818361187c565b3861145a565b9050346111fa5760203660031901126111fa5760043563ffffffff60e01b81168091036111f65760209250637965db0b60e01b81149081156114c6575b5015158152f35b6301ffc9a760e01b149050386114bf565b602435906001600160a01b038216820361035757565b9181601f84011215610357578235916001600160401b038311610357576020808501948460051b01011161035757565b3360009081527fc748e564f3b67d777128c175b8f51af1229a55070ce08662ef69b06b4c56ecd96020908152604080832054909291907f6d5c9827c1f410bbb61d3b2a0a34b6b30492d9a1fd38588edca7ec4562ab9c9b9060ff16156115835750505050565b61158c3361192f565b9084519061159982611861565b6042825283820194606036873782511561170457603086538251906001918210156117045790607860218501536041915b81831161169657505050611654578461163060486102969360449798519889916116218984019876020b1b1b2b9b9a1b7b73a3937b61d1030b1b1b7bab73a1604d1b8a52610235815180928d603789019101611823565b0103602881018952018761187c565b5194859362461bcd60e51b8552600485015251809281602486015285850190611823565b60648386519062461bcd60e51b825280600483015260248201527f537472696e67733a20686578206c656e67746820696e73756666696369656e746044820152fd5b909192600f811660108110156116f0576f181899199a1a9b1b9c1cb0b131b232b360811b901a6116c6858761191e565b5360041c9280156116dc576000190191906115ca565b634e487b7160e01b82526011600452602482fd5b634e487b7160e01b83526032600452602483fd5b634e487b7160e01b81526032600452602490fd5b60008181526020818152604092838320338452825260ff84842054161561173f5750505050565b6117483361192f565b9084519061175582611861565b6042825283820194606036873782511561170457603086538251906001918210156117045790607860218501536041915b8183116117dd57505050611654578461163060486102969360449798519889916116218984019876020b1b1b2b9b9a1b7b73a3937b61d1030b1b1b7bab73a1604d1b8a52610235815180928d603789019101611823565b909192600f811660108110156116f0576f181899199a1a9b1b9c1cb0b131b232b360811b901a61180d858761191e565b5360041c9280156116dc57600019019190611786565b60005b8381106118365750506000910152565b8181015183820152602001611826565b604081019081106001600160401b038211176108ae57604052565b608081019081106001600160401b038211176108ae57604052565b90601f801991011681019081106001600160401b038211176108ae57604052565b9060009180835282602052604083209160018060a01b03169182845260205260ff6040842054166118cd57505050565b80835282602052604083208284526020526040832060ff1981541690557ff6391f5c32d9c69d2a47ea670b442974b53935d1edc7fd64eb21e047a839171b339380a4565b9190820180921161032b57565b908151811015610341570160200190565b60405190606082018281106001600160401b038211176108ae57604052602a82526020820160403682378251156103415760309053815160019081101561034157607860218401536029905b8082116119cf57505061198b5790565b606460405162461bcd60e51b815260206004820152602060248201527f537472696e67733a20686578206c656e67746820696e73756666696369656e746044820152fd5b9091600f81166010811015611a28576f181899199a1a9b1b9c1cb0b131b232b360811b901a6119fe848661191e565b5360041c918015611a1357600019019061197b565b60246000634e487b7160e01b81526011600452fd5b60246000634e487b7160e01b81526032600452fd5b90816020910312610357575180151581036103575790565b60208151910151906040519060208201926bffffffffffffffffffffffff19809260601b16845260601b16603482015260288152606081018181106001600160401b038211176108ae5760405251902090565b600019811461032b5760010190565b600a5481101561034157600a60005260011b600080516020611b6b8339815191520190600090565b90604051611aec81611846565b82546001600160a01b0390811682526001909301549092166020830152565b91908110156103415760051b0190565b91908110156103415760081b0190565b90604091828183378083016000848481015b60028310611b53575050505060c0809101910137565b908082818660019537019301910190918590611b3d56fec65a7bb8d6351c1cf70c95a316cc6a92839c986682d98bc35f958f4883f9d2a8f652222313e28459528d920b65115c16c04f3efc82aaedc97be59f3f377c0d3fa2646970667358221220d961df8cdc217cd31f1bbb3152bc379e9e71bd5b1ef2132d47a308f0b5364fd964736f6c6343000813003360806040818152346100f257600090818052602090828252808320338452825260ff8184205416156100bc575b7ff7054b28837a3e0f0fcdf0631d7a1f2c54f272601d37d24ed1fa836bd1c2ae9491828452838152818420338552815260ff828520541615610083575b5050508060015580600255606855610b0290816100f88239f35b82845283815281842090338552528220600160ff1982541617905533903390600080516020610bfa8339815191528480a4388080610069565b8280528282528083203384528252808320600160ff19825416179055333384600080516020610bfa8339815191528180a461002c565b600080fdfe6080604081815260048036101561001557600080fd5b600092833560e01c90816301ffc9a71461067057508063248a9ca3146106475780632f2ff15d146105a957806335a5cfcb1461058a57806336568abe146105025780633fd861a7146104d657806391d148541461049c578063a217fddf14610481578063a956253a14610446578063d547741f1461040e5763f2f5a7e51461009c57600080fd5b3461040a5760209182600319360112610406578135927ff7054b28837a3e0f0fcdf0631d7a1f2c54f272601d37d24ed1fa836bd1c2ae94808652858252828620338752825260ff83872054161561022757508385526067815260ff82862054166101da576001928354606481146000146101c8575060025460648110156101b5576003015486526067825282862060ff1981541690556002548481018091116101a257606490066002555b600254845481018091116101a25760001981019081116101a2576064900690606482101561018f57509084606792600301558486525283209060ff1982541617905560685580f35b634e487b7160e01b875260329052602486fd5b634e487b7160e01b875260118252602487fd5b634e487b7160e01b875260328252602487fd5b60001981146101a25784018455610147565b905162461bcd60e51b8152918201526024808201527f456c656d656e7420697320616c726561647920696e2074686520636f6c6c65636044820152633a34b7b760e11b6064820152608490fd5b90935084610234336109bd565b91835190610241826108ce565b604282528682019260603685378251156103f357603084538251906001918210156103e05790607860218501536041915b81831161037557505050610334578361030460488895610326956102f59560449a99519687936102cc8b86019b76020b1b1b2b9b9a1b7b73a3937b61d1030b1b1b7bab73a1604d1b8d5282519283916037890191016108ab565b8401917001034b99036b4b9b9b4b733903937b6329607d1b6037840152518093868401906108ab565b01036028810185520183610900565b5195869462461bcd60e51b8652850152518092816024860152858501906108ab565b601f01601f19168101030190fd5b606485878087519262461bcd60e51b845283015260248201527f537472696e67733a20686578206c656e67746820696e73756666696369656e746044820152fd5b909192600f811660108110156103cd576f181899199a1a9b1b9c1cb0b131b232b360811b901a6103a58587610996565b53881c9280156103ba57600019019190610272565b634e487b7160e01b825260118952602482fd5b634e487b7160e01b835260328a52602483fd5b634e487b7160e01b815260328852602490fd5b634e487b7160e01b815260328752602490fd5b8380fd5b8280fd5b50503461044257600161043f9161043a610427366106c4565b93909283875286602052862001546106ef565b610922565b80f35b5080fd5b505034610442578160031936011261044257602090517ff7054b28837a3e0f0fcdf0631d7a1f2c54f272601d37d24ed1fa836bd1c2ae948152f35b50503461044257816003193601126104425751908152602090f35b5050346104425760ff816020936104b2366106c4565b9082528186528282206001600160a01b039091168252855220549151911615158152f35b503461040a57602036600319011261040a578160209360ff923581526067855220541690519015158152f35b5082903461044257610513366106c4565b91336001600160a01b0384160361052f57509061043f91610922565b608490602086519162461bcd60e51b8352820152602f60248201527f416363657373436f6e74726f6c3a2063616e206f6e6c792072656e6f756e636560448201526e103937b632b9903337b91039b2b63360891b6064820152fd5b5050346104425781600319360112610442576020906068549051908152f35b505034610442576105b9366106c4565b9091828452836020526105d1600182862001546106ef565b82845260208481528185206001600160a01b039093168086529290528084205460ff16156105fd578380f35b828452836020528084208285526020528320600160ff1982541617905533917f2f8788117e7eff1d82e926ec794901d17c78024a50270940304540a733656f0d8480a43880808380f35b503461040a57602036600319011261040a57816020936001923581528085522001549051908152f35b9250503461040a57602036600319011261040a573563ffffffff60e01b811680910361040a5760209250637965db0b60e01b81149081156106b3575b5015158152f35b6301ffc9a760e01b149050386106ac565b60409060031901126106ea57600435906024356001600160a01b03811681036106ea5790565b600080fd5b60008181526020818152604092838320338452825260ff8484205416156107165750505050565b61071f336109bd565b9084519061072c826108ce565b6042825283820194606036873782511561089757603086538251906001918210156108975790607860218501536041915b818311610829575050506107e757846107c360486103269360449798519889916107b48984019876020b1b1b2b9b9a1b7b73a3937b61d1030b1b1b7bab73a1604d1b8a526102cc815180928d6037890191016108ab565b01036028810189520187610900565b5194859362461bcd60e51b85526004850152518092816024860152858501906108ab565b60648386519062461bcd60e51b825280600483015260248201527f537472696e67733a20686578206c656e67746820696e73756666696369656e746044820152fd5b909192600f81166010811015610883576f181899199a1a9b1b9c1cb0b131b232b360811b901a6108598587610996565b5360041c92801561086f5760001901919061075d565b634e487b7160e01b82526011600452602482fd5b634e487b7160e01b83526032600452602483fd5b634e487b7160e01b81526032600452602490fd5b60005b8381106108be5750506000910152565b81810151838201526020016108ae565b6080810190811067ffffffffffffffff8211176108ea57604052565b634e487b7160e01b600052604160045260246000fd5b90601f8019910116810190811067ffffffffffffffff8211176108ea57604052565b9060009180835282602052604083209160018060a01b03169182845260205260ff60408420541661095257505050565b80835282602052604083208284526020526040832060ff1981541690557ff6391f5c32d9c69d2a47ea670b442974b53935d1edc7fd64eb21e047a839171b339380a4565b9081518110156109a7570160200190565b634e487b7160e01b600052603260045260246000fd5b604051906060820182811067ffffffffffffffff8211176108ea57604052602a82526020820160403682378251156109a7576030905381516001908110156109a757607860218401536029905b808211610a5e575050610a1a5790565b606460405162461bcd60e51b815260206004820152602060248201527f537472696e67733a20686578206c656e67746820696e73756666696369656e746044820152fd5b9091600f81166010811015610ab7576f181899199a1a9b1b9c1cb0b131b232b360811b901a610a8d8486610996565b5360041c918015610aa2576000190190610a0a565b60246000634e487b7160e01b81526011600452fd5b60246000634e487b7160e01b81526032600452fdfea2646970667358221220983b3f3309ca15aff0505335fea84be3d627f4e22408bb396786cec3a281bc5464736f6c634300081300332f8788117e7eff1d82e926ec794901d17c78024a50270940304540a733656f0d2f8788117e7eff1d82e926ec794901d17c78024a50270940304540a733656f0d",
    "linkReferences": {
      "src/swap/SwapProofVerifier.sol": {
        "SwapProofVerifier": [
          {
            "start": 4218,
            "length": 20
          }
        ]
      }
    }
  },
  "methodIdentifiers": {
    "BOT_ROLE()": "b1503774",
    "DEFAULT_ADMIN_ROLE()": "a217fddf",
    "STATE_ADMIN_ROLE()": "a956253a",
    "addTransaction(address,address,uint256)": "fe73b27f",
    "checkHistoricalRoot(uint256)": "174fa8d0",
    "doSwap()": "bdf72599",
    "feeTier()": "72f5d98a",
    "getBatchNumber()": "6d6516c0",
    "getRoleAdmin(bytes32)": "248a9ca3",
    "grantRole(bytes32,address)": "2f2ff15d",
    "hasRole(bytes32,address)": "91d14854",
    "renounceRole(bytes32,address)": "36568abe",
    "revokeRole(bytes32,address)": "d547741f",
    "supportsInterface(bytes4)": "01ffc9a7",
    "swapRouter()": "c31c9c07",
    "updateRoot((uint256[2],uint256[2][2],uint256[2])[],uint256[],uint256[])": "a5da2217"
  },
  "id": 51
}