{
  "abi": [
    {
      "inputs": [
        {
          "internalType": "address",
          "name": "swapRouterAddr",
          "type": "address"
        }
      ],
      "stateMutability": "nonpayable",
      "type": "constructor"
    },
    {
      "inputs": [],
      "name": "feeTier",
      "outputs": [
        {
          "internalType": "uint24",
          "name": "",
          "type": "uint24"
        }
      ],
      "stateMutability": "view",
      "type": "function"
    },
    {
      "inputs": [],
      "name": "swapRouter",
      "outputs": [
        {
          "internalType": "contract ISwapRouter",
          "name": "",
          "type": "address"
        }
      ],
      "stateMutability": "view",
      "type": "function"
    }
  ],
  "bytecode": {
    "object": "0x60a03461006a57601f61015338819003918201601f19168301916001600160401b0383118484101761006f5780849260209460405283398101031261006a57516001600160a01b0381169081900361006a5760805260405160cd908161008682396080518160470152f35b600080fd5b634e487b7160e01b600052604160045260246000fdfe6080806040526004361015601257600080fd5b600090813560e01c90816372f5d98a146079575063c31c9c0714603457600080fd5b34607657806003193601126076576040517f00000000000000000000000000000000000000000000000000000000000000006001600160a01b03168152602090f35b80fd5b9050346093578160031936011260935780610bb860209252f35b5080fdfea26469706673582212209c8b4301c4a42586327ee889259c00b7d2408c3da540e5c1dd201c58f70d23b664736f6c63430008110033",
    "linkReferences": {}
  },
  "methodIdentifiers": {
    "feeTier()": "72f5d98a",
    "swapRouter()": "c31c9c07"
  },
  "id": 49
}