{
  "abi": [
    {
      "inputs": [
        {
          "internalType": "contract ISwapRouter",
          "name": "_swapRouter",
          "type": "address"
        }
      ],
      "stateMutability": "nonpayable",
      "type": "constructor"
    },
    {
      "inputs": [],
      "name": "feeTier",
      "outputs": [
        {
          "internalType": "uint24",
          "name": "",
          "type": "uint24"
        }
      ],
      "stateMutability": "view",
      "type": "function"
    },
    {
      "inputs": [],
      "name": "swapRouter",
      "outputs": [
        {
          "internalType": "contract ISwapRouter",
          "name": "",
          "type": "address"
        }
      ],
      "stateMutability": "view",
      "type": "function"
    }
  ],
  "bytecode": {
    "object": "0x60a03461006857601f61015138819003918201601f19168301916001600160401b0383118484101761006d5780849260209460405283398101031261006857516001600160a01b03811681036100685760805260405160cd908161008482396080518160470152f35b600080fd5b634e487b7160e01b600052604160045260246000fdfe6080806040526004361015601257600080fd5b600090813560e01c90816372f5d98a146079575063c31c9c0714603457600080fd5b34607657806003193601126076576040517f00000000000000000000000000000000000000000000000000000000000000006001600160a01b03168152602090f35b80fd5b9050346093578160031936011260935780610bb860209252f35b5080fdfea26469706673582212205e572c7f542a00a827cb47444d34271970c60ef5cca964ed947e8127eaed5cb264736f6c63430008130033",
    "linkReferences": {}
  },
  "methodIdentifiers": {
    "feeTier()": "72f5d98a",
    "swapRouter()": "c31c9c07"
  },
  "id": 44
}