{
  "abi": [
    {
      "inputs": [],
      "stateMutability": "nonpayable",
      "type": "constructor"
    },
    {
      "anonymous": false,
      "inputs": [
        {
          "indexed": true,
          "internalType": "bytes32",
          "name": "role",
          "type": "bytes32"
        },
        {
          "indexed": true,
          "internalType": "bytes32",
          "name": "previousAdminRole",
          "type": "bytes32"
        },
        {
          "indexed": true,
          "internalType": "bytes32",
          "name": "newAdminRole",
          "type": "bytes32"
        }
      ],
      "name": "RoleAdminChanged",
      "type": "event"
    },
    {
      "anonymous": false,
      "inputs": [
        {
          "indexed": true,
          "internalType": "bytes32",
          "name": "role",
          "type": "bytes32"
        },
        {
          "indexed": true,
          "internalType": "address",
          "name": "account",
          "type": "address"
        },
        {
          "indexed": true,
          "internalType": "address",
          "name": "sender",
          "type": "address"
        }
      ],
      "name": "RoleGranted",
      "type": "event"
    },
    {
      "anonymous": false,
      "inputs": [
        {
          "indexed": true,
          "internalType": "bytes32",
          "name": "role",
          "type": "bytes32"
        },
        {
          "indexed": true,
          "internalType": "address",
          "name": "account",
          "type": "address"
        },
        {
          "indexed": true,
          "internalType": "address",
          "name": "sender",
          "type": "address"
        }
      ],
      "name": "RoleRevoked",
      "type": "event"
    },
    {
      "inputs": [],
      "name": "DEFAULT_ADMIN_ROLE",
      "outputs": [
        {
          "internalType": "bytes32",
          "name": "",
          "type": "bytes32"
        }
      ],
      "stateMutability": "view",
      "type": "function"
    },
    {
      "inputs": [],
      "name": "STATE_ADMIN_ROLE",
      "outputs": [
        {
          "internalType": "bytes32",
          "name": "",
          "type": "bytes32"
        }
      ],
      "stateMutability": "view",
      "type": "function"
    },
    {
      "inputs": [
        {
          "internalType": "uint256",
          "name": "element",
          "type": "uint256"
        }
      ],
      "name": "checkMembership",
      "outputs": [
        {
          "internalType": "bool",
          "name": "",
          "type": "bool"
        }
      ],
      "stateMutability": "view",
      "type": "function"
    },
    {
      "inputs": [],
      "name": "getCurrent",
      "outputs": [
        {
          "internalType": "uint256",
          "name": "",
          "type": "uint256"
        }
      ],
      "stateMutability": "view",
      "type": "function"
    },
    {
      "inputs": [
        {
          "internalType": "bytes32",
          "name": "role",
          "type": "bytes32"
        }
      ],
      "name": "getRoleAdmin",
      "outputs": [
        {
          "internalType": "bytes32",
          "name": "",
          "type": "bytes32"
        }
      ],
      "stateMutability": "view",
      "type": "function"
    },
    {
      "inputs": [
        {
          "internalType": "bytes32",
          "name": "role",
          "type": "bytes32"
        },
        {
          "internalType": "address",
          "name": "account",
          "type": "address"
        }
      ],
      "name": "grantRole",
      "outputs": [],
      "stateMutability": "nonpayable",
      "type": "function"
    },
    {
      "inputs": [
        {
          "internalType": "bytes32",
          "name": "role",
          "type": "bytes32"
        },
        {
          "internalType": "address",
          "name": "account",
          "type": "address"
        }
      ],
      "name": "hasRole",
      "outputs": [
        {
          "internalType": "bool",
          "name": "",
          "type": "bool"
        }
      ],
      "stateMutability": "view",
      "type": "function"
    },
    {
      "inputs": [
        {
          "internalType": "bytes32",
          "name": "role",
          "type": "bytes32"
        },
        {
          "internalType": "address",
          "name": "account",
          "type": "address"
        }
      ],
      "name": "renounceRole",
      "outputs": [],
      "stateMutability": "nonpayable",
      "type": "function"
    },
    {
      "inputs": [
        {
          "internalType": "bytes32",
          "name": "role",
          "type": "bytes32"
        },
        {
          "internalType": "address",
          "name": "account",
          "type": "address"
        }
      ],
      "name": "revokeRole",
      "outputs": [],
      "stateMutability": "nonpayable",
      "type": "function"
    },
    {
      "inputs": [
        {
          "internalType": "uint256",
          "name": "element",
          "type": "uint256"
        }
      ],
      "name": "setRoot",
      "outputs": [],
      "stateMutability": "nonpayable",
      "type": "function"
    },
    {
      "inputs": [
        {
          "internalType": "bytes4",
          "name": "interfaceId",
          "type": "bytes4"
        }
      ],
      "name": "supportsInterface",
      "outputs": [
        {
          "internalType": "bool",
          "name": "",
          "type": "bool"
        }
      ],
      "stateMutability": "view",
      "type": "function"
    }
  ],
  "bytecode": {
    "object": "0x60806040818152346100f257600090818052602090828252808320338452825260ff8184205416156100bc575b7ff7054b28837a3e0f0fcdf0631d7a1f2c54f272601d37d24ed1fa836bd1c2ae9491828452838152818420338552815260ff828520541615610083575b5050508060015580600255606855610b0290816100f88239f35b82845283815281842090338552528220600160ff1982541617905533903390600080516020610bfa8339815191528480a4388080610069565b8280528282528083203384528252808320600160ff19825416179055333384600080516020610bfa8339815191528180a461002c565b600080fdfe6080604081815260048036101561001557600080fd5b600092833560e01c90816301ffc9a71461067057508063248a9ca3146106475780632f2ff15d146105a957806335a5cfcb1461058a57806336568abe146105025780633fd861a7146104d657806391d148541461049c578063a217fddf14610481578063a956253a14610446578063d547741f1461040e5763f2f5a7e51461009c57600080fd5b3461040a5760209182600319360112610406578135927ff7054b28837a3e0f0fcdf0631d7a1f2c54f272601d37d24ed1fa836bd1c2ae94808652858252828620338752825260ff83872054161561022757508385526067815260ff82862054166101da576001928354606481146000146101c8575060025460648110156101b5576003015486526067825282862060ff1981541690556002548481018091116101a257606490066002555b600254845481018091116101a25760001981019081116101a2576064900690606482101561018f57509084606792600301558486525283209060ff1982541617905560685580f35b634e487b7160e01b875260329052602486fd5b634e487b7160e01b875260118252602487fd5b634e487b7160e01b875260328252602487fd5b60001981146101a25784018455610147565b905162461bcd60e51b8152918201526024808201527f456c656d656e7420697320616c726561647920696e2074686520636f6c6c65636044820152633a34b7b760e11b6064820152608490fd5b90935084610234336109bd565b91835190610241826108ce565b604282528682019260603685378251156103f357603084538251906001918210156103e05790607860218501536041915b81831161037557505050610334578361030460488895610326956102f59560449a99519687936102cc8b86019b76020b1b1b2b9b9a1b7b73a3937b61d1030b1b1b7bab73a1604d1b8d5282519283916037890191016108ab565b8401917001034b99036b4b9b9b4b733903937b6329607d1b6037840152518093868401906108ab565b01036028810185520183610900565b5195869462461bcd60e51b8652850152518092816024860152858501906108ab565b601f01601f19168101030190fd5b606485878087519262461bcd60e51b845283015260248201527f537472696e67733a20686578206c656e67746820696e73756666696369656e746044820152fd5b909192600f811660108110156103cd576f181899199a1a9b1b9c1cb0b131b232b360811b901a6103a58587610996565b53881c9280156103ba57600019019190610272565b634e487b7160e01b825260118952602482fd5b634e487b7160e01b835260328a52602483fd5b634e487b7160e01b815260328852602490fd5b634e487b7160e01b815260328752602490fd5b8380fd5b8280fd5b50503461044257600161043f9161043a610427366106c4565b93909283875286602052862001546106ef565b610922565b80f35b5080fd5b505034610442578160031936011261044257602090517ff7054b28837a3e0f0fcdf0631d7a1f2c54f272601d37d24ed1fa836bd1c2ae948152f35b50503461044257816003193601126104425751908152602090f35b5050346104425760ff816020936104b2366106c4565b9082528186528282206001600160a01b039091168252855220549151911615158152f35b503461040a57602036600319011261040a578160209360ff923581526067855220541690519015158152f35b5082903461044257610513366106c4565b91336001600160a01b0384160361052f57509061043f91610922565b608490602086519162461bcd60e51b8352820152602f60248201527f416363657373436f6e74726f6c3a2063616e206f6e6c792072656e6f756e636560448201526e103937b632b9903337b91039b2b63360891b6064820152fd5b5050346104425781600319360112610442576020906068549051908152f35b505034610442576105b9366106c4565b9091828452836020526105d1600182862001546106ef565b82845260208481528185206001600160a01b039093168086529290528084205460ff16156105fd578380f35b828452836020528084208285526020528320600160ff1982541617905533917f2f8788117e7eff1d82e926ec794901d17c78024a50270940304540a733656f0d8480a43880808380f35b503461040a57602036600319011261040a57816020936001923581528085522001549051908152f35b9250503461040a57602036600319011261040a573563ffffffff60e01b811680910361040a5760209250637965db0b60e01b81149081156106b3575b5015158152f35b6301ffc9a760e01b149050386106ac565b60409060031901126106ea57600435906024356001600160a01b03811681036106ea5790565b600080fd5b60008181526020818152604092838320338452825260ff8484205416156107165750505050565b61071f336109bd565b9084519061072c826108ce565b6042825283820194606036873782511561089757603086538251906001918210156108975790607860218501536041915b818311610829575050506107e757846107c360486103269360449798519889916107b48984019876020b1b1b2b9b9a1b7b73a3937b61d1030b1b1b7bab73a1604d1b8a526102cc815180928d6037890191016108ab565b01036028810189520187610900565b5194859362461bcd60e51b85526004850152518092816024860152858501906108ab565b60648386519062461bcd60e51b825280600483015260248201527f537472696e67733a20686578206c656e67746820696e73756666696369656e746044820152fd5b909192600f81166010811015610883576f181899199a1a9b1b9c1cb0b131b232b360811b901a6108598587610996565b5360041c92801561086f5760001901919061075d565b634e487b7160e01b82526011600452602482fd5b634e487b7160e01b83526032600452602483fd5b634e487b7160e01b81526032600452602490fd5b60005b8381106108be5750506000910152565b81810151838201526020016108ae565b6080810190811067ffffffffffffffff8211176108ea57604052565b634e487b7160e01b600052604160045260246000fd5b90601f8019910116810190811067ffffffffffffffff8211176108ea57604052565b9060009180835282602052604083209160018060a01b03169182845260205260ff60408420541661095257505050565b80835282602052604083208284526020526040832060ff1981541690557ff6391f5c32d9c69d2a47ea670b442974b53935d1edc7fd64eb21e047a839171b339380a4565b9081518110156109a7570160200190565b634e487b7160e01b600052603260045260246000fd5b604051906060820182811067ffffffffffffffff8211176108ea57604052602a82526020820160403682378251156109a7576030905381516001908110156109a757607860218401536029905b808211610a5e575050610a1a5790565b606460405162461bcd60e51b815260206004820152602060248201527f537472696e67733a20686578206c656e67746820696e73756666696369656e746044820152fd5b9091600f81166010811015610ab7576f181899199a1a9b1b9c1cb0b131b232b360811b901a610a8d8486610996565b5360041c918015610aa2576000190190610a0a565b60246000634e487b7160e01b81526011600452fd5b60246000634e487b7160e01b81526032600452fdfea2646970667358221220983b3f3309ca15aff0505335fea84be3d627f4e22408bb396786cec3a281bc5464736f6c634300081300332f8788117e7eff1d82e926ec794901d17c78024a50270940304540a733656f0d",
    "linkReferences": {}
  },
  "methodIdentifiers": {
    "DEFAULT_ADMIN_ROLE()": "a217fddf",
    "STATE_ADMIN_ROLE()": "a956253a",
    "checkMembership(uint256)": "3fd861a7",
    "getCurrent()": "35a5cfcb",
    "getRoleAdmin(bytes32)": "248a9ca3",
    "grantRole(bytes32,address)": "2f2ff15d",
    "hasRole(bytes32,address)": "91d14854",
    "renounceRole(bytes32,address)": "36568abe",
    "revokeRole(bytes32,address)": "d547741f",
    "setRoot(uint256)": "f2f5a7e5",
    "supportsInterface(bytes4)": "01ffc9a7"
  },
  "id": 45
}