{
  "abi": [
    {
      "inputs": [
        {
          "internalType": "uint256[2]",
          "name": "a",
          "type": "uint256[2]"
        },
        {
          "internalType": "uint256[2][2]",
          "name": "b",
          "type": "uint256[2][2]"
        },
        {
          "internalType": "uint256[2]",
          "name": "c",
          "type": "uint256[2]"
        },
        {
          "internalType": "uint256[2]",
          "name": "input",
          "type": "uint256[2]"
        }
      ],
      "name": "verifyProof",
      "outputs": [
        {
          "internalType": "bool",
          "name": "r",
          "type": "bool"
        }
      ],
      "stateMutability": "view",
      "type": "function"
    }
  ],
  "bytecode": {
    "object": "0x6080806040523461001657610fea908161001c8239f35b600080fdfe604060808152600436101561001357600080fd5b6000803560e01c63f5c9d69e1461002957600080fd5b346100be576101403660031901126100be5761004436610165565b9036606312156100be576100566100d8565b908160c4913683116100be57506044905b8282106100a5576100a1866100908787610080366101a7565b9061008a366101e5565b9261048d565b905190151581529081906020820190565b0390f35b602086916100b33685610225565b815201910190610067565b80fd5b50634e487b7160e01b600052604160045260246000fd5b604051906040820182811067ffffffffffffffff8211176100f857604052565b6101006100c1565b604052565b604051906060820182811067ffffffffffffffff8211176100f857604052565b604051906080820182811067ffffffffffffffff8211176100f857604052565b6040519060a0820182811067ffffffffffffffff8211176100f857604052565b80602312156101a2576101766100d8565b908160449182116101a2576004905b8282106101925750505090565b8135815260209182019101610185565b600080fd5b8060e312156101a2576101b86100d8565b90816101049182116101a25760c4905b8282106101d55750505090565b81358152602091820191016101c8565b8061012312156101a2576101f76100d8565b90816101449182116101a257610104905b8282106102155750505090565b8135815260209182019101610208565b9080601f830112156101a2576102396100d8565b8092604081019283116101a257905b8282106102555750505090565b8135815260209182019101610248565b604051906020820182811067ffffffffffffffff82111761028b575b6040526020368337565b6102936100c1565b610281565b6102a06100d8565b906102a96100d8565b604036823782526102b86100d8565b60403682376020830152565b604051906060820182811067ffffffffffffffff821117610320575b604052816102ec6100d8565b60008152600060208201528152610301610298565b602082015260406103106100d8565b9160008352600060208401520152565b6103286100c1565b6102e0565b50634e487b7160e01b600052603260045260246000fd5b906002811015610356575b60051b0190565b61035e61032d565b61034f565b60209067ffffffffffffffff811161037c5760051b0190565b61035e6100c1565b61038c610105565b60028152906040366020840137565b906103a582610363565b60405190601f1990601f018116820167ffffffffffffffff8111838210176103e2575b6040528382526103d88294610363565b0190602036910137565b6103ea6100c1565b6103c8565b50634e487b7160e01b600052601160045260246000fd5b6001906000198114610416570190565b61041e6103ef565b0190565b602090805115610430570190565b61041e61032d565b604090805160011015610430570190565b606090805160021015610430570190565b608090805160031015610430570190565b6020918151811015610480575b60051b010190565b61048861032d565b610478565b929190926104996102c4565b9381516020809301516104aa6100d8565b9182528382015285526104bb6100d8565b9080515182526104cc815160200190565b51838301526104eb836104dd6100d8565b920180515183525160200190565b51838201526104f86100d8565b9182528282015281850152808251920151906105126100d8565b9283528201526040830152610525610384565b9060005b6002811061054b5750509061053d9161064c565b61054657600190565b600090565b8061055961056a9284610344565b51610564828661046b565b52610406565b610529565b906001820180921161057d57565b6105856103ef565b565b906002820180921161057d57565b906003820180921161057d57565b906004820180921161057d57565b906005820180921161057d57565b156105c657565b60405162461bcd60e51b81526020600482015260126024820152711d995c9a599a595c8b5898590b5a5b9c1d5d60721b6044820152606490fd5b1561060757565b60405162461bcd60e51b815260206004820152601f60248201527f76657269666965722d6774652d736e61726b2d7363616c61722d6669656c64006044820152606490fd5b919091610657610c73565b91610662825161056f565b906106746080850192835151146105bf565b61067c6100d8565b6000815260006020820152946000955b845187101561070c57610700610706916106d17f30644e72e131a029b85045b68181585d2833e84879b9709143e1f593f00000016106ca8b8a61046b565b5110610600565b6106fa6106e887516106e28c61056f565b9061046b565b516106f38b8a61046b565b519061085b565b90610803565b96610406565b9561068c565b61075e9592965061075a945061072661072d929451610422565b5190610803565b91610738815161076c565b9260208201518351602085015191606060408088015196015196015196610924565b1590565b61076757600090565b600190565b600060206107786100d8565b8281520152805115806107f7575b6107e05760208151917f30644e72e131a029b85045b68181585d97816a916871ca8d3c208c16d87cfd4791829101510681039081116107d3575b6107c86100d8565b918252602082015290565b6107db6103ef565b6107c0565b506107e96100d8565b600081526000602082015290565b50602081015115610786565b60609092919260c06108136100d8565b916000835260006020840152602083968161082c610125565b936080368637805185520151828401528051604084015201518482015260066107cf195a01fa1561085957565bfe5b606090929192608061086b6100d8565b91600083526000602084015282956020610883610105565b92863685378051845201516020830152604082015260076107cf195a01fa1561085957565b6108b0610145565b6004815290600082815b608081106108c757505050565b6020906108d26100d8565b8481528285818301528285010152016108ba565b6108ee610125565b6003815290600082815b6060811061090557505050565b6020906109106100d8565b8481528285818301528285010152016108f8565b979693949291956109336108a8565b9561093c610145565b976004895260005b608081106109fa57506109f7999a61095b89610422565b5261096588610422565b5061096f88610438565b5261097987610438565b5061098387610449565b5261098d86610449565b506109978661045a565b526109a18561045a565b506109ab86610422565b526109b585610422565b506109bf85610438565b526109c984610438565b506109d384610449565b526109dd83610449565b506109e78361045a565b526109f18261045a565b50610ab0565b90565b602090610a05610298565b82828d01015201610944565b15610a1857565b60405162461bcd60e51b81526020600482015260166024820152751c185a5c9a5b99cb5b195b99dd1a1ccb59985a5b195960521b6044820152606490fd5b9060068202918083046006149015171561057d57565b15610a7357565b60405162461bcd60e51b81526020600482015260156024820152741c185a5c9a5b99cb5bdc18dbd9194b59985a5b1959605a1b6044820152606490fd5b610abd8151835114610a11565b8051610ac881610a56565b92610ad28461039b565b9260005b838110610b1457505050506020918291610aee610265565b93849260051b910160086107cf195a01fa801561085957610b0e90610a6c565b51151590565b80610b22610bfe928461046b565b5151610b36610b3083610a56565b8861046b565b52610be9602080610b47848761046b565b510151610b64610b5e610b5986610a56565b61056f565b8a61046b565b52610b6f838761046b565b515151610b86610b5e610b8186610a56565b610587565b52610b9c610b94848861046b565b515160200190565b51610bb1610b5e610bac86610a56565b610595565b5280610bbd848861046b565b51015151610bd5610b5e610bd086610a56565b6105a3565b52610be0838761046b565b51015160200190565b51610564610b30610bf984610a56565b6105b1565b610ad6565b6040519060a0820182811067ffffffffffffffff821117610c66575b6040526060608083610c2f6100d8565b60008152600060208201528152610c44610298565b6020820152610c51610298565b6040820152610c5e610298565b838201520152565b610c6e6100c1565b610c1f565b610c7b610c03565b90610fb1610c876100d8565b7f2d4d9aa7e302d9df41749d5507949d05dbea33fbb16c643b22f599a2be6df2e281526020907f14bedd503c37ceb061d8ec60209fe345ce89830a19230301f076caff004d1926828201528452610cdc6100d8565b7f0967032fcbf776d1afc985f88877f182d38480a653f2decaa9794cbc3bf3060c81527f0e187847ad4c798374d0d6732bf501847dd68bc0e071241e0213bc7fc13db7ab82820152610d2c6100d8565b7f304cfbd1e08a704a99f5e847d93f8c3caafddec46b7a0d379da69a4d112346a781527f1739c1b1a457a8c7313123d24d2f9192f896b7c63eea05a9d57f06547ad0cec883820152610d7c6100d8565b9182528282015281850152610d8f6100d8565b7f198e9393920d483a7260bfb731fb5d25f1aa493335a9e71297e485b7aef312c2908181527f1800deef121f1e76426a00665e5c4479674322d4f75edadd46debd5cd992f6ed8084830152610de26100d8565b907f090689d0585ff075ec9e99ad690c3395bc4b313370b38ef355acdadcd122975b928383527f12c85ea5db8c6deb4aab71808dcb408fe3d1e7690c43d37b4ce6cc0166fa7daa928387820152610e376100d8565b918252868201526040890152610e4b6100d8565b93845284840152610e5a6100d8565b91825283820152610e696100d8565b918252828201526060850152610e7d6108e6565b60808501908152610ee9610e8f6100d8565b7f15dd94f27dbe13ed08891d2fdb3e09433843fe9fef03dfce0642f8572a6f97e881527f03744b009c5e1a10888442d3b39d156b69e0279bd21fc3149fe21476cade8bfc84820152825190610ee382610422565b52610422565b50610f4f610ef56100d8565b7f2c1b15002fa604469a01af8bc90e017bc0c616906495a1ab1bfae61b342ccde481527f1e8c8925cffb3fa67b6e402c8eb54e09ab53a9a6a6ef8b3ec01a1e8859d8a1c384820152825190610f4982610438565b52610438565b507f2dc58f3534480f806111c7cee72c1a1840a0cb076bc6a4b902a49fde82819989610f796100d8565b927f2f68b14147a0892c98077823c4af599c10488ba22a08027c9c3c5e26f1b9e64084528301525190610fab82610449565b52610449565b5056fea2646970667358221220238d3b510bf10f70ff279f24bc9e17fb029a7e63303abf16bed692ab17579bda64736f6c63430008110033",
    "linkReferences": {}
  },
  "methodIdentifiers": {
    "verifyProof(uint256[2],uint256[2][2],uint256[2],uint256[2])": "f5c9d69e"
  },
  "id": 0
}