{
  "abi": [
    {
      "inputs": [
        {
          "internalType": "address",
          "name": "owner",
          "type": "address"
        },
        {
          "internalType": "address",
          "name": "sequencer",
          "type": "address"
        },
        {
          "internalType": "address",
          "name": "swap_bot",
          "type": "address"
        },
        {
          "internalType": "address",
          "name": "swap_router",
          "type": "address"
        }
      ],
      "stateMutability": "nonpayable",
      "type": "constructor"
    },
    {
      "anonymous": false,
      "inputs": [
        {
          "indexed": true,
          "internalType": "bytes32",
          "name": "role",
          "type": "bytes32"
        },
        {
          "indexed": true,
          "internalType": "bytes32",
          "name": "previousAdminRole",
          "type": "bytes32"
        },
        {
          "indexed": true,
          "internalType": "bytes32",
          "name": "newAdminRole",
          "type": "bytes32"
        }
      ],
      "name": "RoleAdminChanged",
      "type": "event"
    },
    {
      "anonymous": false,
      "inputs": [
        {
          "indexed": true,
          "internalType": "bytes32",
          "name": "role",
          "type": "bytes32"
        },
        {
          "indexed": true,
          "internalType": "address",
          "name": "account",
          "type": "address"
        },
        {
          "indexed": true,
          "internalType": "address",
          "name": "sender",
          "type": "address"
        }
      ],
      "name": "RoleGranted",
      "type": "event"
    },
    {
      "anonymous": false,
      "inputs": [
        {
          "indexed": true,
          "internalType": "bytes32",
          "name": "role",
          "type": "bytes32"
        },
        {
          "indexed": true,
          "internalType": "address",
          "name": "account",
          "type": "address"
        },
        {
          "indexed": true,
          "internalType": "address",
          "name": "sender",
          "type": "address"
        }
      ],
      "name": "RoleRevoked",
      "type": "event"
    },
    {
      "inputs": [],
      "name": "DEFAULT_ADMIN_ROLE",
      "outputs": [
        {
          "internalType": "bytes32",
          "name": "",
          "type": "bytes32"
        }
      ],
      "stateMutability": "view",
      "type": "function"
    },
    {
      "inputs": [],
      "name": "SEQUENCER_ROLE",
      "outputs": [
        {
          "internalType": "bytes32",
          "name": "",
          "type": "bytes32"
        }
      ],
      "stateMutability": "view",
      "type": "function"
    },
    {
      "inputs": [
        {
          "components": [
            {
              "internalType": "uint256[2]",
              "name": "pi_a",
              "type": "uint256[2]"
            },
            {
              "internalType": "uint256[2][2]",
              "name": "pi_b",
              "type": "uint256[2][2]"
            },
            {
              "internalType": "uint256[2]",
              "name": "pi_c",
              "type": "uint256[2]"
            }
          ],
          "internalType": "struct WellFormedTicketVerifier.Proof",
          "name": "well_formed_spent_swap_deactivator_proof",
          "type": "tuple"
        },
        {
          "internalType": "uint256",
          "name": "new_spent_swap_deactivator_ticket",
          "type": "uint256"
        },
        {
          "internalType": "uint256",
          "name": "old_swap_hash_commitment",
          "type": "uint256"
        },
        {
          "components": [
            {
              "internalType": "uint256[2]",
              "name": "pi_a",
              "type": "uint256[2]"
            },
            {
              "internalType": "uint256[2][2]",
              "name": "pi_b",
              "type": "uint256[2][2]"
            },
            {
              "internalType": "uint256[2]",
              "name": "pi_c",
              "type": "uint256[2]"
            }
          ],
          "internalType": "struct SMTMembershipVerifier.Proof",
          "name": "oldSwapCommitmentInclusionProof",
          "type": "tuple"
        },
        {
          "internalType": "uint256",
          "name": "prior_root_for_commitment_inclusion",
          "type": "uint256"
        },
        {
          "components": [
            {
              "internalType": "uint256[2]",
              "name": "pi_a",
              "type": "uint256[2]"
            },
            {
              "internalType": "uint256[2][2]",
              "name": "pi_b",
              "type": "uint256[2][2]"
            },
            {
              "internalType": "uint256[2]",
              "name": "pi_c",
              "type": "uint256[2]"
            }
          ],
          "internalType": "struct SMTMembershipVerifier.Proof",
          "name": "smt_update_deactivator_proof",
          "type": "tuple"
        },
        {
          "internalType": "uint256",
          "name": "root_after_adding_deactivator",
          "type": "uint256"
        },
        {
          "components": [
            {
              "internalType": "uint256[2]",
              "name": "pi_a",
              "type": "uint256[2]"
            },
            {
              "internalType": "uint256[2][2]",
              "name": "pi_b",
              "type": "uint256[2][2]"
            },
            {
              "internalType": "uint256[2]",
              "name": "pi_c",
              "type": "uint256[2]"
            }
          ],
          "internalType": "struct SwapProofVerifier.Proof",
          "name": "price_smt_proof_and_wellformed_new_p2skh_ticket_proof",
          "type": "tuple"
        },
        {
          "internalType": "uint256",
          "name": "new_p2skh_ticket_hash",
          "type": "uint256"
        },
        {
          "internalType": "uint256",
          "name": "prior_price_root_for_deactivator_amount",
          "type": "uint256"
        },
        {
          "internalType": "uint256",
          "name": "swap_event_commitment",
          "type": "uint256"
        },
        {
          "components": [
            {
              "internalType": "uint256[2]",
              "name": "pi_a",
              "type": "uint256[2]"
            },
            {
              "internalType": "uint256[2][2]",
              "name": "pi_b",
              "type": "uint256[2][2]"
            },
            {
              "internalType": "uint256[2]",
              "name": "pi_c",
              "type": "uint256[2]"
            }
          ],
          "internalType": "struct SMTMembershipVerifier.Proof",
          "name": "smt_update_new_p2skh_ticket_proof",
          "type": "tuple"
        },
        {
          "internalType": "uint256",
          "name": "root_after_adding_new_p2skh_ticket",
          "type": "uint256"
        }
      ],
      "name": "burnSwapToP2SKH",
      "outputs": [],
      "stateMutability": "nonpayable",
      "type": "function"
    },
    {
      "inputs": [
        {
          "components": [
            {
              "internalType": "uint256[2]",
              "name": "pi_a",
              "type": "uint256[2]"
            },
            {
              "internalType": "uint256[2][2]",
              "name": "pi_b",
              "type": "uint256[2][2]"
            },
            {
              "internalType": "uint256[2]",
              "name": "pi_c",
              "type": "uint256[2]"
            }
          ],
          "internalType": "struct WellFormedTicketVerifier.Proof",
          "name": "well_formed_proof",
          "type": "tuple"
        },
        {
          "internalType": "uint256",
          "name": "ticket_hash",
          "type": "uint256"
        },
        {
          "components": [
            {
              "internalType": "uint256[2]",
              "name": "pi_a",
              "type": "uint256[2]"
            },
            {
              "internalType": "uint256[2][2]",
              "name": "pi_b",
              "type": "uint256[2][2]"
            },
            {
              "internalType": "uint256[2]",
              "name": "pi_c",
              "type": "uint256[2]"
            }
          ],
          "internalType": "struct SMTMembershipVerifier.Proof",
          "name": "smt_update_proof",
          "type": "tuple"
        },
        {
          "internalType": "uint256",
          "name": "new_root",
          "type": "uint256"
        },
        {
          "internalType": "address",
          "name": "token",
          "type": "address"
        },
        {
          "internalType": "uint256",
          "name": "amount",
          "type": "uint256"
        },
        {
          "internalType": "address",
          "name": "alice",
          "type": "address"
        }
      ],
      "name": "deposit",
      "outputs": [],
      "stateMutability": "nonpayable",
      "type": "function"
    },
    {
      "inputs": [
        {
          "internalType": "bytes32",
          "name": "role",
          "type": "bytes32"
        }
      ],
      "name": "getRoleAdmin",
      "outputs": [
        {
          "internalType": "bytes32",
          "name": "",
          "type": "bytes32"
        }
      ],
      "stateMutability": "view",
      "type": "function"
    },
    {
      "inputs": [
        {
          "internalType": "bytes32",
          "name": "role",
          "type": "bytes32"
        },
        {
          "internalType": "address",
          "name": "account",
          "type": "address"
        }
      ],
      "name": "grantRole",
      "outputs": [],
      "stateMutability": "nonpayable",
      "type": "function"
    },
    {
      "inputs": [
        {
          "internalType": "bytes32",
          "name": "role",
          "type": "bytes32"
        },
        {
          "internalType": "address",
          "name": "account",
          "type": "address"
        }
      ],
      "name": "hasRole",
      "outputs": [
        {
          "internalType": "bool",
          "name": "",
          "type": "bool"
        }
      ],
      "stateMutability": "view",
      "type": "function"
    },
    {
      "inputs": [
        {
          "components": [
            {
              "internalType": "uint256[2]",
              "name": "pi_a",
              "type": "uint256[2]"
            },
            {
              "internalType": "uint256[2][2]",
              "name": "pi_b",
              "type": "uint256[2][2]"
            },
            {
              "internalType": "uint256[2]",
              "name": "pi_c",
              "type": "uint256[2]"
            }
          ],
          "internalType": "struct WellFormedTicketVerifier.Proof",
          "name": "well_formed_deactivator_for_p2skh_1",
          "type": "tuple"
        },
        {
          "components": [
            {
              "internalType": "uint256[2]",
              "name": "pi_a",
              "type": "uint256[2]"
            },
            {
              "internalType": "uint256[2][2]",
              "name": "pi_b",
              "type": "uint256[2][2]"
            },
            {
              "internalType": "uint256[2]",
              "name": "pi_c",
              "type": "uint256[2]"
            }
          ],
          "internalType": "struct WellFormedTicketVerifier.Proof",
          "name": "well_formed_deactivator_for_p2skh_2",
          "type": "tuple"
        },
        {
          "components": [
            {
              "internalType": "uint256[2]",
              "name": "pi_a",
              "type": "uint256[2]"
            },
            {
              "internalType": "uint256[2][2]",
              "name": "pi_b",
              "type": "uint256[2][2]"
            },
            {
              "internalType": "uint256[2]",
              "name": "pi_c",
              "type": "uint256[2]"
            }
          ],
          "internalType": "struct SMTMembershipVerifier.Proof",
          "name": "smt_update_deactivator_proof_1",
          "type": "tuple"
        },
        {
          "components": [
            {
              "internalType": "uint256[2]",
              "name": "pi_a",
              "type": "uint256[2]"
            },
            {
              "internalType": "uint256[2][2]",
              "name": "pi_b",
              "type": "uint256[2][2]"
            },
            {
              "internalType": "uint256[2]",
              "name": "pi_c",
              "type": "uint256[2]"
            }
          ],
          "internalType": "struct SMTMembershipVerifier.Proof",
          "name": "smt_update_deactivator_proof_2",
          "type": "tuple"
        },
        {
          "internalType": "uint256",
          "name": "old_p2skh_ticket_commitment_1",
          "type": "uint256"
        },
        {
          "internalType": "uint256",
          "name": "old_p2skh_ticket_commitment_2",
          "type": "uint256"
        },
        {
          "internalType": "uint256",
          "name": "old_p2skh_deactivator_ticket_1",
          "type": "uint256"
        },
        {
          "internalType": "uint256",
          "name": "old_p2skh_deactivator_ticket_2",
          "type": "uint256"
        },
        {
          "internalType": "uint256",
          "name": "smt_root_after_adding_deactivator_1",
          "type": "uint256"
        },
        {
          "internalType": "uint256",
          "name": "smt_root_after_adding_deactivator_2",
          "type": "uint256"
        },
        {
          "components": [
            {
              "internalType": "uint256[2]",
              "name": "pi_a",
              "type": "uint256[2]"
            },
            {
              "internalType": "uint256[2][2]",
              "name": "pi_b",
              "type": "uint256[2][2]"
            },
            {
              "internalType": "uint256[2]",
              "name": "pi_c",
              "type": "uint256[2]"
            }
          ],
          "internalType": "struct WellFormedTicketVerifier.Proof",
          "name": "well_formed_new_p2skh_ticket_proof",
          "type": "tuple"
        },
        {
          "components": [
            {
              "internalType": "uint256[2]",
              "name": "pi_a",
              "type": "uint256[2]"
            },
            {
              "internalType": "uint256[2][2]",
              "name": "pi_b",
              "type": "uint256[2][2]"
            },
            {
              "internalType": "uint256[2]",
              "name": "pi_c",
              "type": "uint256[2]"
            }
          ],
          "internalType": "struct SMTMembershipVerifier.Proof",
          "name": "smt_update_new_p2skh_ticket_proof",
          "type": "tuple"
        },
        {
          "internalType": "uint256",
          "name": "new_p2skh_ticket",
          "type": "uint256"
        },
        {
          "internalType": "uint256",
          "name": "smt_root_after_adding_new_p2skh_ticket",
          "type": "uint256"
        }
      ],
      "name": "mergeP2SKH",
      "outputs": [],
      "stateMutability": "nonpayable",
      "type": "function"
    },
    {
      "inputs": [
        {
          "internalType": "bytes32",
          "name": "role",
          "type": "bytes32"
        },
        {
          "internalType": "address",
          "name": "account",
          "type": "address"
        }
      ],
      "name": "renounceRole",
      "outputs": [],
      "stateMutability": "nonpayable",
      "type": "function"
    },
    {
      "inputs": [
        {
          "internalType": "bytes32",
          "name": "role",
          "type": "bytes32"
        },
        {
          "internalType": "address",
          "name": "account",
          "type": "address"
        }
      ],
      "name": "revokeRole",
      "outputs": [],
      "stateMutability": "nonpayable",
      "type": "function"
    },
    {
      "inputs": [
        {
          "components": [
            {
              "internalType": "uint256[2]",
              "name": "pi_a",
              "type": "uint256[2]"
            },
            {
              "internalType": "uint256[2][2]",
              "name": "pi_b",
              "type": "uint256[2][2]"
            },
            {
              "internalType": "uint256[2]",
              "name": "pi_c",
              "type": "uint256[2]"
            }
          ],
          "internalType": "struct WellFormedTicketVerifier.Proof",
          "name": "well_formed_deactivator_proof",
          "type": "tuple"
        },
        {
          "internalType": "uint256",
          "name": "new_deactivator_ticket_hash",
          "type": "uint256"
        },
        {
          "components": [
            {
              "internalType": "uint256[2]",
              "name": "pi_a",
              "type": "uint256[2]"
            },
            {
              "internalType": "uint256[2][2]",
              "name": "pi_b",
              "type": "uint256[2][2]"
            },
            {
              "internalType": "uint256[2]",
              "name": "pi_c",
              "type": "uint256[2]"
            }
          ],
          "internalType": "struct SMTMembershipVerifier.Proof",
          "name": "oldTokenCommitmentInclusionProof",
          "type": "tuple"
        },
        {
          "internalType": "uint256",
          "name": "prior_root_for_commitment_inclusion",
          "type": "uint256"
        },
        {
          "internalType": "uint256",
          "name": "old_ticket_hash_commitment",
          "type": "uint256"
        },
        {
          "components": [
            {
              "internalType": "uint256[2]",
              "name": "pi_a",
              "type": "uint256[2]"
            },
            {
              "internalType": "uint256[2][2]",
              "name": "pi_b",
              "type": "uint256[2][2]"
            },
            {
              "internalType": "uint256[2]",
              "name": "pi_c",
              "type": "uint256[2]"
            }
          ],
          "internalType": "struct SMTMembershipVerifier.Proof",
          "name": "smt_update_deactivator_proof",
          "type": "tuple"
        },
        {
          "internalType": "uint256",
          "name": "root_after_adding_deactivator",
          "type": "uint256"
        },
        {
          "components": [
            {
              "internalType": "uint256[2]",
              "name": "pi_a",
              "type": "uint256[2]"
            },
            {
              "internalType": "uint256[2][2]",
              "name": "pi_b",
              "type": "uint256[2][2]"
            },
            {
              "internalType": "uint256[2]",
              "name": "pi_c",
              "type": "uint256[2]"
            }
          ],
          "internalType": "struct SwapProofVerifier.Proof",
          "name": "well_formed_new_swap_ticket_proof",
          "type": "tuple"
        },
        {
          "internalType": "uint256",
          "name": "new_swap_ticket_hash",
          "type": "uint256"
        },
        {
          "components": [
            {
              "internalType": "uint256[2]",
              "name": "pi_a",
              "type": "uint256[2]"
            },
            {
              "internalType": "uint256[2][2]",
              "name": "pi_b",
              "type": "uint256[2][2]"
            },
            {
              "internalType": "uint256[2]",
              "name": "pi_c",
              "type": "uint256[2]"
            }
          ],
          "internalType": "struct SMTMembershipVerifier.Proof",
          "name": "smt_update_new_swap_ticket_proof",
          "type": "tuple"
        },
        {
          "internalType": "uint256",
          "name": "root_after_adding_new_swap_ticket",
          "type": "uint256"
        },
        {
          "internalType": "contract IERC20",
          "name": "token",
          "type": "address"
        },
        {
          "internalType": "contract IERC20",
          "name": "destination_token",
          "type": "address"
        },
        {
          "internalType": "uint256",
          "name": "amount",
          "type": "uint256"
        }
      ],
      "name": "setup_swap",
      "outputs": [],
      "stateMutability": "nonpayable",
      "type": "function"
    },
    {
      "inputs": [
        {
          "components": [
            {
              "internalType": "uint256[2]",
              "name": "pi_a",
              "type": "uint256[2]"
            },
            {
              "internalType": "uint256[2][2]",
              "name": "pi_b",
              "type": "uint256[2][2]"
            },
            {
              "internalType": "uint256[2]",
              "name": "pi_c",
              "type": "uint256[2]"
            }
          ],
          "internalType": "struct WellFormedTicketVerifier.Proof",
          "name": "well_formed_deactivator_for_p2skh",
          "type": "tuple"
        },
        {
          "components": [
            {
              "internalType": "uint256[2]",
              "name": "pi_a",
              "type": "uint256[2]"
            },
            {
              "internalType": "uint256[2][2]",
              "name": "pi_b",
              "type": "uint256[2][2]"
            },
            {
              "internalType": "uint256[2]",
              "name": "pi_c",
              "type": "uint256[2]"
            }
          ],
          "internalType": "struct SMTMembershipVerifier.Proof",
          "name": "smt_update_deactivator_proof",
          "type": "tuple"
        },
        {
          "internalType": "uint256",
          "name": "old_p2skh_ticket_commitment",
          "type": "uint256"
        },
        {
          "internalType": "uint256",
          "name": "old_p2skh_deactivator_ticket",
          "type": "uint256"
        },
        {
          "internalType": "uint256",
          "name": "smt_root_after_adding_deactivator",
          "type": "uint256"
        },
        {
          "components": [
            {
              "internalType": "uint256[2]",
              "name": "pi_a",
              "type": "uint256[2]"
            },
            {
              "internalType": "uint256[2][2]",
              "name": "pi_b",
              "type": "uint256[2][2]"
            },
            {
              "internalType": "uint256[2]",
              "name": "pi_c",
              "type": "uint256[2]"
            }
          ],
          "internalType": "struct WellFormedTicketVerifier.Proof",
          "name": "well_formed_new_p2skh_tickets_proof",
          "type": "tuple"
        },
        {
          "components": [
            {
              "internalType": "uint256[2]",
              "name": "pi_a",
              "type": "uint256[2]"
            },
            {
              "internalType": "uint256[2][2]",
              "name": "pi_b",
              "type": "uint256[2][2]"
            },
            {
              "internalType": "uint256[2]",
              "name": "pi_c",
              "type": "uint256[2]"
            }
          ],
          "internalType": "struct SMTMembershipVerifier.Proof",
          "name": "smt_update_new_p2skh_ticket_1_proof",
          "type": "tuple"
        },
        {
          "components": [
            {
              "internalType": "uint256[2]",
              "name": "pi_a",
              "type": "uint256[2]"
            },
            {
              "internalType": "uint256[2][2]",
              "name": "pi_b",
              "type": "uint256[2][2]"
            },
            {
              "internalType": "uint256[2]",
              "name": "pi_c",
              "type": "uint256[2]"
            }
          ],
          "internalType": "struct SMTMembershipVerifier.Proof",
          "name": "smt_update_new_p2skh_ticket_2_proof",
          "type": "tuple"
        },
        {
          "internalType": "uint256",
          "name": "new_p2skh_ticket_1",
          "type": "uint256"
        },
        {
          "internalType": "uint256",
          "name": "smt_root_after_adding_new_p2skh_ticket_1",
          "type": "uint256"
        },
        {
          "internalType": "uint256",
          "name": "new_p2skh_ticket_2",
          "type": "uint256"
        },
        {
          "internalType": "uint256",
          "name": "smt_root_after_adding_new_p2skh_ticket_2",
          "type": "uint256"
        }
      ],
      "name": "splitP2SKH",
      "outputs": [],
      "stateMutability": "nonpayable",
      "type": "function"
    },
    {
      "inputs": [
        {
          "internalType": "bytes4",
          "name": "interfaceId",
          "type": "bytes4"
        }
      ],
      "name": "supportsInterface",
      "outputs": [
        {
          "internalType": "bool",
          "name": "",
          "type": "bool"
        }
      ],
      "stateMutability": "view",
      "type": "function"
    },
    {
      "inputs": [
        {
          "components": [
            {
              "internalType": "uint256[2]",
              "name": "pi_a",
              "type": "uint256[2]"
            },
            {
              "internalType": "uint256[2][2]",
              "name": "pi_b",
              "type": "uint256[2][2]"
            },
            {
              "internalType": "uint256[2]",
              "name": "pi_c",
              "type": "uint256[2]"
            }
          ],
          "internalType": "struct WellFormedTicketVerifier.Proof",
          "name": "well_formed_deactivator_proof",
          "type": "tuple"
        },
        {
          "internalType": "uint256",
          "name": "new_deactivator_ticket_hash",
          "type": "uint256"
        },
        {
          "components": [
            {
              "internalType": "uint256[2]",
              "name": "pi_a",
              "type": "uint256[2]"
            },
            {
              "internalType": "uint256[2][2]",
              "name": "pi_b",
              "type": "uint256[2][2]"
            },
            {
              "internalType": "uint256[2]",
              "name": "pi_c",
              "type": "uint256[2]"
            }
          ],
          "internalType": "struct SMTMembershipVerifier.Proof",
          "name": "oldTokenCommitmentInclusionProof",
          "type": "tuple"
        },
        {
          "internalType": "uint256",
          "name": "old_ticket_hash_commitment",
          "type": "uint256"
        },
        {
          "internalType": "uint256",
          "name": "prior_root",
          "type": "uint256"
        },
        {
          "components": [
            {
              "internalType": "uint256[2]",
              "name": "pi_a",
              "type": "uint256[2]"
            },
            {
              "internalType": "uint256[2][2]",
              "name": "pi_b",
              "type": "uint256[2][2]"
            },
            {
              "internalType": "uint256[2]",
              "name": "pi_c",
              "type": "uint256[2]"
            }
          ],
          "internalType": "struct SMTMembershipVerifier.Proof",
          "name": "smt_update_proof",
          "type": "tuple"
        },
        {
          "internalType": "uint256",
          "name": "new_root",
          "type": "uint256"
        },
        {
          "internalType": "contract IERC20",
          "name": "token",
          "type": "address"
        },
        {
          "internalType": "uint256",
          "name": "amount",
          "type": "uint256"
        },
        {
          "internalType": "address",
          "name": "recipient",
          "type": "address"
        }
      ],
      "name": "withdraw",
      "outputs": [],
      "stateMutability": "nonpayable",
      "type": "function"
    }
  ],
  "bytecode": {
    "object": "0x6080346200024257601f6200697e38819003918201601f19168301926001600160401b039290918385118386101762000247578160809284926040978852833981010312620002425762000053816200025d565b906020620000638183016200025d565b916200007f6060620000778884016200025d565b92016200025d565b600093846001558460025584805284845287852060018060a01b0380971690818752855260ff89872054161562000209575b507fac4f1890dc96c9a02330d1fa696648a38f3b282d2449c2d8e6f10507488c84c89081865285855286898720911690818752855260ff898720541615620001d0575b5050865192612abb928385019385851089861117620001bc579260609492888093889662003ea388393086521690840152168882015203019082f0928315620001b057600380549484166001600160a01b0319958616179055845190610c1a80830191838310908311176200019c57908291620032898339039082f090811562000191575016906004541617600455516130169081620002738239f35b8451903d90823e3d90fd5b634e487b7160e01b84526041600452602484fd5b508351903d90823e3d90fd5b634e487b7160e01b87526041600452602487fd5b8186528585528886208187528552888620805460ff1916600117905533916000805160206200695e8339815191528780a43880620000f4565b8580528585528886208187528552888620805460ff191660011790553390866000805160206200695e8339815191528180a438620000b1565b600080fd5b634e487b7160e01b600052604160045260246000fd5b51906001600160a01b0382168203620002425756fe608080604052600436101561001357600080fd5b600090813560e01c90816301ffc9a71461250557508063248a9ca3146124d95780632f2ff15d1461242b5780632f8534eb14611ce557806336568abe14611c525780634842855c14611c1757806356e7fafe1461189e578063711c91c2146112925780637916191e14610c01578063811968021461062157806391d14854146105d6578063a217fddf146105ba578063d547741f1461057a5763df5e12a5146100bb57600080fd5b346103995736600319016102a0811261057657610100809112610576573661012319011261039957610244356001600160a01b0381168103610488576102643590610284356001600160a01b038116900361048857610118612570565b60015460018101809111610562576001556040805163458e0acb60e11b815290600480830137604460008282015b6002821061054c57505050604060c48083013760018060a01b03821661010482015282610124820152610104356101448201526020816101648173__$3ba98bdf2df073581c85659629b42bad16$__5af490811561043d57849161052d575b50156104e85760018060a01b03600454166040516335a5cfcb60e01b8152602081600481855afa9081156104dd5785916104ab575b50604051906339e0829d60e21b60208301526024820152610224356044820152610104356064820152606481528060a081011067ffffffffffffffff60a0830111176104955760049185808360a06020950160405284815191016a636f6e736f6c652e6c6f675afa506040516335a5cfcb60e01b815292839182905afa90811561043d57849161045e575b5060408051632ef9791160e01b8152919061012460048401376101646000604484015b600282106104485750505060406101e460c484013761010482015261022435610124820152610104356101448201526020816101648173__$f4972089147d44b2b4178fddf99908d688$__5af490811561043d57849161041e575b50156103d9576040516323b872dd60e01b81526001600160a01b0361028435166004820152306024820152604481019290925260209082908185816064810103926001600160a01b03165af1801561039c576103469183916103aa575b50612b6c565b60045481906001600160a01b0316803b156103a75781809160246040518094819363f2f5a7e560e01b83526102243560048401525af1801561039c576103895750f35b610392906128bc565b6103995780f35b80fd5b6040513d84823e3d90fd5b50fd5b6103cc915060203d6020116103d2575b6103c481836128ec565b810190612ab8565b38610340565b503d6103ba565b60405162461bcd60e51b815260206004820152601760248201527f534d54207570646174652070726f6f66206661696c65640000000000000000006044820152606490fd5b610437915060203d6020116103d2576103c481836128ec565b386102e3565b6040513d86823e3d90fd5b6040808281866001953701930191019091610288565b90506020813d60201161048d575b81610479602093836128ec565b81010312610488575138610265565b600080fd5b3d915061046c565b634e487b7160e01b600052604160045260246000fd5b90506020813d6020116104d5575b816104c6602093836128ec565b810103126104885751386101da565b3d91506104b9565b6040513d87823e3d90fd5b60405162461bcd60e51b815260206004820152601860248201527f57656c6c2d666f726d65642070726f6f66206661696c656400000000000000006044820152606490fd5b610546915060203d6020116103d2576103c481836128ec565b386101a5565b6040808281866001953701930191019091610146565b634e487b7160e01b84526011600452602484fd5b5080fd5b5034610399576040366003190112610399576105b760043561059a61255a565b90808452836020526105b2600160408620015461278e565b61290e565b80f35b5034610399578060031936011261039957602090604051908152f35b50346103995760403660031901126103995760406105f261255a565b91600435815280602052209060018060a01b0316600052602052602060ff604060002054166040519015158152f35b50346103995736600319016105e0811261057657610100809112610576578061010319360112610576578061026319360112610576578061036319360112610576573661046319011261039957610676612570565b60015460038101809111610bed5760015560405163eac116d160e01b8152610224359061020435816106ac848360048401612bb0565b039060208373__$3ba98bdf2df073581c85659629b42bad16$__9381855af49283156104dd576004936106e6918791610bce575b50612ee2565b82546040516335a5cfcb60e01b81526001600160a01b0395909490916020918691829089165afa938415610bc3578694610b8f575b50604051632ef9791160e01b81529361073660048601612ad0565b610104850152610244356101248501526101448401526020836101648173__$f4972089147d44b2b4178fddf99908d688$__5af49182156104dd576107886020936107ad958891610b72575b50612e18565b6040518080958194633fd39b3b60e21b83526105a43590610564359060048501612b10565b03915af4908115610b67578391610b48575b5015610a445760408051632ef9791160e01b81529061036460048301376103a46000604483015b60028210610a2e57505050604061042460c483013761024435610104820152610584359081610124820152610564356101448201526020816101648173__$f4972089147d44b2b4178fddf99908d688$__5af490811561043d578491610a0f575b50156109aa5760408051632ef9791160e01b8152919061046460048401376104a46000604484015b6002821061099457505050604061052460c48401376101048201526105c43590816101248201526105a4356101448201526020816101648173__$f4972089147d44b2b4178fddf99908d688$__5af490811561043d578491610975575b50156109105782916004541690813b1561090c57829160248392604051948593849263f2f5a7e560e01b845260048401525af1801561039c576103895750f35b5050fd5b60405162461bcd60e51b81526020600482015260436024820152600080516020612fc183398151915260448201527f746c7920746f2061646420796f7572206e6577207032736b68207469636b657460648201526210191760e91b608482015260a490fd5b61098e915060203d6020116103d2576103c481836128ec565b386108cc565b604080828186600195370193019101909161086f565b60405162461bcd60e51b81526020600482015260436024820152600080516020612fc183398151915260448201527f746c7920746f2061646420796f7572206e6577207032736b68207469636b657460648201526210189760e91b608482015260a490fd5b610a28915060203d6020116103d2576103c481836128ec565b38610847565b60408082818660019537019301910190916107e6565b60405162461bcd60e51b81526020600482015260c060248201527f65697468657220746865206e6577207032736b68207469636b6574732077657260448201527f656e27742077656c6c20666f726d65642c206f7220746865697220746f6b656e60648201527f732077657265206e6f7420616c6c207468652073616d6520617320746865206f60848201527f6c6420636f6d6d69746d656e74732c206f722e2e2e2073706f6f6b792e2e2e2060a48201527f746865206164646974696f6e20696e76617269616e74206661696c65642e2e2e60c48201527f207765726520796f7520747279696e6720746f20737465616c2066756e64733f60e482015261010490fd5b610b61915060203d6020116103d2576103c481836128ec565b386107bf565b6040513d85823e3d90fd5b610b899150853d87116103d2576103c481836128ec565b38610782565b9093506020813d602011610bbb575b81610bab602093836128ec565b810103126104885751923861071b565b3d9150610b9e565b6040513d88823e3d90fd5b610be7915060203d6020116103d2576103c481836128ec565b386106e0565b634e487b7160e01b82526011600452602482fd5b503461039957366003190161060081126105765761010080911261057657806101431936011261057657806102631936011261057657806103831936011261057657366104e319011261039957610c56612570565b60015460028101809111610bed57600155604051634c7abba560e01b8152610104359060208180610c8e856101243560048401612bb0565b038173__$3ba98bdf2df073581c85659629b42bad16$__5af4908115610b67578391611273575b501561119f57604080516377aab5e160e01b81529061014460048301376101846000604483015b6002821061118957505050604061020460c4830137610244359081610104820152610124356101248201526020816101448173__$f4972089147d44b2b4178fddf99908d688$__5af4801561043d57610d3c91859161116a575b50612d35565b60018060a01b03600454169060405190633fd861a760e01b82526004820152602081602481855afa90811561043d57849161114b575b50156110e0576020600491604051928380926335a5cfcb60e01b82525afa908115610b675783916110ac575b50604051632ef9791160e01b81529160209183918291610dc79190610364359060048501612b10565b038173__$f4972089147d44b2b4178fddf99908d688$__5af4801561039c57610df69183916110935750612e18565b600354604051630174fa8d60e41b81526104a435600482015290602090829060249082906001600160a01b03165afa90811561039c578291611074575b5015610ffb576040805163c2a4cff160e01b81529061038460048301376103c46000604483015b60028210610fe557505050604061044460c48301376104c43561010482015261012435610124820152610484356101448201526020816101648173__$dc3f29d2aa147a13f516383a5a41ac843d$__5af490811561039c578291610fc6575b50156103995760408051632ef9791160e01b815282916104e460048301376105246000604483015b60028210610faa5750505060406105a460c4830137610364356101048201526105e4359081610124820152610484356101448201526020816101648173__$f4972089147d44b2b4178fddf99908d688$__5af48015610b6757610f4b918491610f8b575b50612e78565b6004546001600160a01b031690813b1561090c57829160248392604051948593849263f2f5a7e560e01b845260048401525af1801561039c576103895750f35b610fa4915060203d6020116103d2576103c481836128ec565b38610f45565b8293945060408181600194958194370193019101849392610ee1565b610fdf915060203d6020116103d2576103c481836128ec565b38610eb9565b6040808281866001953701930191019091610e5a565b60405162461bcd60e51b815260206004820152604560248201527f74686520707269636520534d5420726f6f7420796f752070726f76656420737460448201527f75666620616761696e73742069736e2774206f6e652077652068617665206f6e6064820152642066696c6560d81b608482015260a490fd5b61108d915060203d6020116103d2576103c481836128ec565b38610e33565b610b89915060203d6020116103d2576103c481836128ec565b90506020813d6020116110d8575b816110c7602093836128ec565b810103126104885751610dc7610d9e565b3d91506110ba565b60405162461bcd60e51b815260206004820152603f60248201527f74686520534d5420726f6f7420796f752070726f76656420737475666620616760448201527f61696e73742069736e2774206f6e652077652068617665206f6e2066696c65006064820152608490fd5b611164915060203d6020116103d2576103c481836128ec565b38610d72565b611183915060203d6020116103d2576103c481836128ec565b38610d36565b6040808281866001953701930191019091610cdc565b60405162461bcd60e51b815260206004820152609460248201527f6465616374697661746f72207761736e27742077656c6c20666f726d6564206560448201527f697468657220696e20697473656c662c206f7220616761696e737420796f757260648201527f20636f6d6d69746d656e7420746f206974732073776170207469636b65742c2060848201527f6f7220616761696e737420796f75722063616c6c20617267756d656e74732c2060a48201527337b9103cb7bab9103130b13cb53ab11035b2bc9760611b60c482015260e490fd5b61128c915060203d6020116103d2576103c481836128ec565b38610cb5565b503461039957366003190161062081126105765761010080911261057657806101231936011261057657806102631936011261057657806103831936011261057657366104a3190112610399576105c4356001600160a01b0381168103610488576105e4356001600160a01b03811681036104885761130f612570565b6001546002810180911161056257600155610604351561189a576001600160a01b038281169082161461189a576003546040516301b5945b60e61b815290602090829060049082906001600160a01b03165afa90811561043d578491611868575b50604051634c7abba560e01b815260208180611396610104356102443560048401612bb0565b038173__$3ba98bdf2df073581c85659629b42bad16$__5af480156104dd576113c6918691611849575b50612c59565b6040516377aab5e160e01b8152602081806113eb610244356102243560048401612c03565b038173__$f4972089147d44b2b4178fddf99908d688$__5af480156104dd5761141a91869161116a5750612d35565b60048054604051633fd861a760e01b815261022435928101929092526001600160a01b0316602082602481845afa908115610bc357611465602092600494899161182c575b50612da7565b6040516335a5cfcb60e01b815292839182905afa9081156104dd5785916117f9575b5060206114b29160405180938192632ef9791160e01b83526101043590610364359060048501612b10565b038173__$f4972089147d44b2b4178fddf99908d688$__5af480156104dd576114e19186916110935750612e18565b604080516307de4b2760e41b8152919061038460048401376103c46000604484015b600282106117e357505050604061044460c48401376001600160a01b0384811661010484015283166101248301526106043561014483015261016482015261048435610184820152610244356101a48201526020816101c48173__$dc3f29d2aa147a13f516383a5a41ac843d$__5af490811561043d5784916117c4575b501561176f5760408051632ef9791160e01b815292906104a460048501376104e46000604485015b6002821061175957505050604061056460c4850137610364356101048401526105a4359283610124820152610484356101448201526020816101648173__$f4972089147d44b2b4178fddf99908d688$__5af49081156104dd57859161173a575b50156116e25760045484936001600160a01b0390911690813b156116de57849160248392604051948593849263f2f5a7e560e01b845260048401525af190811561043d5784916116ca575b50506003546001600160a01b031691823b156116c55760405163fe73b27f60e01b81526001600160a01b03928316600482015291166024820152610604356fffffffffffffffffffffffffffffffff1660448201529082908290606490829084905af1801561039c576103895750f35b505050fd5b6116d3906128bc565b61090c578238611655565b8480fd5b608460405162461bcd60e51b81526020600482015260406024820152600080516020612fc183398151915260448201527f746c7920746f2061646420796f7572206e65772073776170207469636b65742e6064820152fd5b611753915060203d6020116103d2576103c481836128ec565b3861160a565b60408082818660019537019301910190916115a9565b60405162461bcd60e51b815260206004820152602760248201527f746865206e65772073776170207469636b6574207761736e27742077656c6c206044820152663337b936b2b21760c91b6064820152608490fd5b6117dd915060203d6020116103d2576103c481836128ec565b38611581565b6040808281866001953701930191019091611503565b90506020813d602011611824575b81611814602093836128ec565b8101031261048857516020611487565b3d9150611807565b6118439150843d86116103d2576103c481836128ec565b3861145f565b611862915060203d6020116103d2576103c481836128ec565b386113c0565b90506020813d602011611892575b81611883602093836128ec565b81010312610488575138611370565b3d9150611876565b8280fd5b5034610399573660031901906103e08212610399576101008092126103995761010435826101231936011261057657610224359061024435936102631936011261189a5761036435916001600160a01b039161038435838116929190839003610488576103c43591848316830361048857611917612570565b60015460018101809111611c0357600155604051634c7abba560e01b81526020989089818061194a878760048401612bb0565b038173__$3ba98bdf2df073581c85659629b42bad16$__5af4908115611bca579061197b918a91611bec5750612c59565b6119b08973__$f4972089147d44b2b4178fddf99908d688$__93604051809381926377aab5e160e01b83528660048401612c03565b0381865af4908115611bca57906119cd918a91611bd55750612d35565b85600454169060405190633fd861a760e01b825260048201528981602481855afa908115611bca5791611a0c8b9260049695948c9161182c5750612da7565b6040516335a5cfcb60e01b815294859182905afa928315611bbf5790878a93928a95611b88575b50611a559460405195869485938493632ef9791160e01b855260048501612b10565b03915af4908115610bc3578691611b6b575b5015611b1b576040516323b872dd60e01b81523060048201526001600160a01b039190911660248201526103a435604482015293948594909182908290606490829089905af19081156104dd57611ac6928692611afe575b5050612b6c565b6004541690813b1561090c57829160248392604051948593849263f2f5a7e560e01b845260048401525af1801561039c576103895750f35b611b149250803d106103d2576103c481836128ec565b3880611abf565b60405162461bcd60e51b815260048101879052602260248201527f74686520534d54206d6f64696669636174696f6e20776173206e6f742076616c6044820152611a5960f21b6064820152608490fd5b611b829150873d89116103d2576103c481836128ec565b38611a67565b93809295508491503d8311611bb8575b611ba281836128ec565b8101031261048857611a5592878a935194611a33565b503d611b98565b6040513d8a823e3d90fd5b6040513d8b823e3d90fd5b61118391508b3d8d116103d2576103c481836128ec565b61186291508b3d8d116103d2576103c481836128ec565b634e487b7160e01b88526011600452602488fd5b503461039957806003193601126103995760206040517fac4f1890dc96c9a02330d1fa696648a38f3b282d2449c2d8e6f10507488c84c88152f35b503461039957604036600319011261039957611c6c61255a565b336001600160a01b03821603611c88576105b79060043561290e565b60405162461bcd60e51b815260206004820152602f60248201527f416363657373436f6e74726f6c3a2063616e206f6e6c792072656e6f756e636560448201526e103937b632b9903337b91039b2b63360891b6064820152608490fd5b503461039957366003190161070081126105765761010080911261057657806101031936011261057657806102031936011261057657806103031936011261057657806104c31936011261057657366105c319011261039957611d46612570565b60015460038101809111610bed5760015560405163eac116d160e01b8082529060208180611d7e610444356104043560048401612bb0565b038173__$3ba98bdf2df073581c85659629b42bad16$__5af48015610b6757611dad918491610bce5750612ee2565b604051908152611dbf60048201612ad0565b61042435610104820152610464356101248201526020816101448173__$3ba98bdf2df073581c85659629b42bad16$__5af490811561039c57829161240c575b501561233557600480546040516335a5cfcb60e01b81529160209183919082906001600160a01b03165afa90811561039c578291612303575b5060408051632ef9791160e01b81529190610204600484013761024483604484015b600282106122ed5750505060406102c460c484013761010482015261048435610124820152610444356101448201526020816101648173__$f4972089147d44b2b4178fddf99908d688$__5af490811561039c5782916122ce575b50156122755760408051632ef9791160e01b815290610304600483013761034482604483015b6002821061225f5750505060406103c460c4830137610484356101048201526104a435610124820152610464356101448201526020816101648173__$f4972089147d44b2b4178fddf99908d688$__5af490811561039c578291612240575b50156121e75760408051635f4462dd60e11b815291906104c4600484013761050481604484015b600282106121d157505050604061058460c484013761040435610104830152610424356101248301526106c43591826101448201526020816101648173__$3ba98bdf2df073581c85659629b42bad16$__5af490811561039c5782916121b2575b50156120ae5760408051632ef9791160e01b815292906105c460048501376106049282604482015b60028210612098575050829350604061068460c48301376104a4356101048201526106e43591826101248301526101448201526020816101648173__$f4972089147d44b2b4178fddf99908d688$__5af48015610b6757612051918491610f8b5750612e78565b6004546001600160a01b0316803b1561090c5760248392604051948593849263f2f5a7e560e01b845260048401525af1801561039c5761208f575080f35b6105b7906128bc565b6040808281896001953701960191019094611fea565b60405162461bcd60e51b81526020600482015260bd60248201527f65697468657220746865206e6577207032736b68207469636b6574732069736e60448201527f27742077656c6c20666f726d65642c206f7220746865697220746f6b656e732060648201527f77657265206e6f7420616c6c207468652073616d6520617320746865206f6c6460848201527f20636f6d6d69746d656e742c206f722e2e2e2073706f6f6b792e2e2e2074686560a48201527f206164646974696f6e20696e76617269616e74206661696c65642e2e2e20776560c48201527f726520796f7520747279696e6720746f20737465616c2066756e64733f00000060e482015261010490fd5b6121cb915060203d6020116103d2576103c481836128ec565b38611fc2565b6040808281866001953701930191019091611f61565b60405162461bcd60e51b815260206004820152603e6024820152600080516020612fc183398151915260448201527f746c7920746f2061646420796f7572206465616374697661746f7220322e00006064820152608490fd5b612259915060203d6020116103d2576103c481836128ec565b38611f3a565b6040808281866001953701930191019091611edb565b60405162461bcd60e51b815260206004820152603e6024820152600080516020612fc183398151915260448201527f746c7920746f2061646420796f7572206465616374697661746f7220312e00006064820152608490fd5b6122e7915060203d6020116103d2576103c481836128ec565b38611eb5565b6040808281866001953701930191019091611e5a565b90506020813d60201161232d575b8161231e602093836128ec565b81010312610576575138611e38565b3d9150612311565b60405162461bcd60e51b815260206004820152609760248201527f6465616374697661746f722032207761736e27742077656c6c20666f726d656460448201527f2065697468657220696e20697473656c662c206f7220616761696e737420796f60648201527f757220636f6d6d69746d656e7420746f20697473207032736b68207469636b6560848201527f742c206f7220616761696e737420796f75722063616c6c20617267756d656e7460a48201527639961037b9103cb7bab9103130b13cb53ab11035b2bc9760491b60c482015260e490fd5b612425915060203d6020116103d2576103c481836128ec565b38611dff565b50346103995760403660031901126103995760043561244861255a565b8183528260205261245f600160408520015461278e565b818352602083815260408085206001600160a01b039093168086529290915283205460ff161561248d578280f35b818352826020526040832081845260205260408320600160ff1982541617905533917f2f8788117e7eff1d82e926ec794901d17c78024a50270940304540a733656f0d8480a438808280f35b503461039957602036600319011261039957600160406020926004358152808452200154604051908152f35b9050346105765760203660031901126105765760043563ffffffff60e01b811680910361189a5760209250637965db0b60e01b8114908115612549575b5015158152f35b6301ffc9a760e01b14905038612542565b602435906001600160a01b038216820361048857565b3360009081527fc7868db9b77be23a26db2238a21e501442afa107fc8ec39322567982117e80366020908152604080832054909291907fac4f1890dc96c9a02330d1fa696648a38f3b282d2449c2d8e6f10507488c84c89060ff16156125d65750505050565b6125df336129a9565b908451906125ec826128d0565b6042825283820194606036873782511561277a576030865382519060019182101561277a5790607860218501536041915b818311612720575050506126de57846126ac60486126d093604497985198899161269d8984019876020b1b1b2b9b9a1b7b73a3937b61d1030b1b1b7bab73a1604d1b8a52612674815180928d603789019101612899565b8401917001034b99036b4b9b9b4b733903937b6329607d1b603784015251809386840190612899565b010360288101895201876128ec565b5194859362461bcd60e51b8552600485015251809281602486015285850190612899565b601f01601f19168101030190fd5b60648386519062461bcd60e51b825280600483015260248201527f537472696e67733a20686578206c656e67746820696e73756666696369656e746044820152fd5b909192600f81166010811015612766576f181899199a1a9b1b9c1cb0b131b232b360811b901a6127508587612982565b5360041c928015610bed5760001901919061261d565b634e487b7160e01b83526032600452602483fd5b634e487b7160e01b81526032600452602490fd5b60008181526020818152604092838320338452825260ff8484205416156127b55750505050565b6127be336129a9565b908451906127cb826128d0565b6042825283820194606036873782511561277a576030865382519060019182101561277a5790607860218501536041915b818311612853575050506126de57846126ac60486126d093604497985198899161269d8984019876020b1b1b2b9b9a1b7b73a3937b61d1030b1b1b7bab73a1604d1b8a52612674815180928d603789019101612899565b909192600f81166010811015612766576f181899199a1a9b1b9c1cb0b131b232b360811b901a6128838587612982565b5360041c928015610bed576000190191906127fc565b60005b8381106128ac5750506000910152565b818101518382015260200161289c565b67ffffffffffffffff811161049557604052565b6080810190811067ffffffffffffffff82111761049557604052565b90601f8019910116810190811067ffffffffffffffff82111761049557604052565b9060009180835282602052604083209160018060a01b03169182845260205260ff60408420541661293e57505050565b80835282602052604083208284526020526040832060ff1981541690557ff6391f5c32d9c69d2a47ea670b442974b53935d1edc7fd64eb21e047a839171b339380a4565b908151811015612993570160200190565b634e487b7160e01b600052603260045260246000fd5b604051906060820182811067ffffffffffffffff82111761049557604052602a82526020820160403682378251156129935760309053815160019081101561299357607860218401536029905b808211612a4a575050612a065790565b606460405162461bcd60e51b815260206004820152602060248201527f537472696e67733a20686578206c656e67746820696e73756666696369656e746044820152fd5b9091600f81166010811015612aa3576f181899199a1a9b1b9c1cb0b131b232b360811b901a612a798486612982565b5360041c918015612a8e5760001901906129f6565b60246000634e487b7160e01b81526011600452fd5b60246000634e487b7160e01b81526032600452fd5b90816020910312610488575180151581036104885790565b6040908161010482376101446000838381015b60028310612af9575050505060c06101c4910137565b908082818660019537019301910190918490612ae3565b604094610160820194909390928661026484376102a49660008482015b60028210612b57575050610140949596975061032460c08501376101008301526101208201520152565b828082818d60019537019a0191019098612b2d565b15612b7357565b60405162461bcd60e51b8152602060048201526015602482015274115490cc8c081d1c985b9cd9995c8819985a5b1959605a1b6044820152606490fd5b91929092610140830192604094856004833760449560008382015b60028210612bee575050610120939495965060c460c08401376101008201520152565b828082818c6001953701990191019097612bcb565b919290926101408301926040948561012483376101649560008382015b60028210612c4457505061012093949596506101e460c08401376101008201520152565b828082818c6001953701990191019097612c20565b15612c6057565b60405162461bcd60e51b815260206004820152609560248201527f6465616374697661746f72207761736e27742077656c6c20666f726d6564206560448201527f697468657220696e20697473656c662c206f7220616761696e737420796f757260648201527f20636f6d6d69746d656e7420746f20697473207032736b68207469636b65742c60848201527f206f7220616761696e737420796f75722063616c6c20617267756d656e74732c60a4820152741037b9103cb7bab9103130b13cb53ab11035b2bc9760591b60c482015260e490fd5b15612d3c57565b60405162461bcd60e51b815260206004820152603a60248201527f74686520636f6d6d69746d656e7420746f20746865206f6c64207469636b657460448201527f207761736e277420696e2074686174207472656520726f6f742e0000000000006064820152608490fd5b15612dae57565b608460405162461bcd60e51b815260206004820152604060248201527f746865207472656520726f6f7420796f752070726f766564207374756666206160448201527f6761696e73742069736e2774206f6e652077652068617665206f6e2066696c656064820152fd5b15612e1f57565b60405162461bcd60e51b815260206004820152603c6024820152600080516020612fc183398151915260448201527f746c7920746f2061646420796f7572206465616374697661746f722e000000006064820152608490fd5b15612e7f57565b60405162461bcd60e51b81526020600482015260416024820152600080516020612fc183398151915260448201527f746c7920746f2061646420796f7572206e6577207032736b68207469636b65746064820152601760f91b608482015260a490fd5b15612ee957565b60405162461bcd60e51b815260206004820152609760248201527f6465616374697661746f722031207761736e27742077656c6c20666f726d656460448201527f2065697468657220696e20697473656c662c206f7220616761696e737420796f60648201527f757220636f6d6d69746d656e7420746f20697473207032736b68207469636b6560848201527f742c206f7220616761696e737420796f75722063616c6c20617267756d656e7460a48201527639961037b9103cb7bab9103130b13cb53ab11035b2bc9760491b60c482015260e490fdfe796f75206469646e2774206d6f646966792074686520534d5420636f72726563a26469706673582212206821e7e068e2502a64c769194bf85a11548d99fde17ec766c1686f72ee81465d64736f6c6343000813003360806040818152346100f257600090818052602090828252808320338452825260ff8184205416156100bc575b7ff7054b28837a3e0f0fcdf0631d7a1f2c54f272601d37d24ed1fa836bd1c2ae9491828452838152818420338552815260ff828520541615610083575b5050508060015580600255606855610b0290816100f88239f35b82845283815281842090338552528220600160ff1982541617905533903390600080516020610bfa8339815191528480a4388080610069565b8280528282528083203384528252808320600160ff19825416179055333384600080516020610bfa8339815191528180a461002c565b600080fdfe6080604081815260048036101561001557600080fd5b600092833560e01c90816301ffc9a71461067057508063248a9ca3146106475780632f2ff15d146105a957806335a5cfcb1461058a57806336568abe146105025780633fd861a7146104d657806391d148541461049c578063a217fddf14610481578063a956253a14610446578063d547741f1461040e5763f2f5a7e51461009c57600080fd5b3461040a5760209182600319360112610406578135927ff7054b28837a3e0f0fcdf0631d7a1f2c54f272601d37d24ed1fa836bd1c2ae94808652858252828620338752825260ff83872054161561022757508385526067815260ff82862054166101da576001928354606481146000146101c8575060025460648110156101b5576003015486526067825282862060ff1981541690556002548481018091116101a257606490066002555b600254845481018091116101a25760001981019081116101a2576064900690606482101561018f57509084606792600301558486525283209060ff1982541617905560685580f35b634e487b7160e01b875260329052602486fd5b634e487b7160e01b875260118252602487fd5b634e487b7160e01b875260328252602487fd5b60001981146101a25784018455610147565b905162461bcd60e51b8152918201526024808201527f456c656d656e7420697320616c726561647920696e2074686520636f6c6c65636044820152633a34b7b760e11b6064820152608490fd5b90935084610234336109bd565b91835190610241826108ce565b604282528682019260603685378251156103f357603084538251906001918210156103e05790607860218501536041915b81831161037557505050610334578361030460488895610326956102f59560449a99519687936102cc8b86019b76020b1b1b2b9b9a1b7b73a3937b61d1030b1b1b7bab73a1604d1b8d5282519283916037890191016108ab565b8401917001034b99036b4b9b9b4b733903937b6329607d1b6037840152518093868401906108ab565b01036028810185520183610900565b5195869462461bcd60e51b8652850152518092816024860152858501906108ab565b601f01601f19168101030190fd5b606485878087519262461bcd60e51b845283015260248201527f537472696e67733a20686578206c656e67746820696e73756666696369656e746044820152fd5b909192600f811660108110156103cd576f181899199a1a9b1b9c1cb0b131b232b360811b901a6103a58587610996565b53881c9280156103ba57600019019190610272565b634e487b7160e01b825260118952602482fd5b634e487b7160e01b835260328a52602483fd5b634e487b7160e01b815260328852602490fd5b634e487b7160e01b815260328752602490fd5b8380fd5b8280fd5b50503461044257600161043f9161043a610427366106c4565b93909283875286602052862001546106ef565b610922565b80f35b5080fd5b505034610442578160031936011261044257602090517ff7054b28837a3e0f0fcdf0631d7a1f2c54f272601d37d24ed1fa836bd1c2ae948152f35b50503461044257816003193601126104425751908152602090f35b5050346104425760ff816020936104b2366106c4565b9082528186528282206001600160a01b039091168252855220549151911615158152f35b503461040a57602036600319011261040a578160209360ff923581526067855220541690519015158152f35b5082903461044257610513366106c4565b91336001600160a01b0384160361052f57509061043f91610922565b608490602086519162461bcd60e51b8352820152602f60248201527f416363657373436f6e74726f6c3a2063616e206f6e6c792072656e6f756e636560448201526e103937b632b9903337b91039b2b63360891b6064820152fd5b5050346104425781600319360112610442576020906068549051908152f35b505034610442576105b9366106c4565b9091828452836020526105d1600182862001546106ef565b82845260208481528185206001600160a01b039093168086529290528084205460ff16156105fd578380f35b828452836020528084208285526020528320600160ff1982541617905533917f2f8788117e7eff1d82e926ec794901d17c78024a50270940304540a733656f0d8480a43880808380f35b503461040a57602036600319011261040a57816020936001923581528085522001549051908152f35b9250503461040a57602036600319011261040a573563ffffffff60e01b811680910361040a5760209250637965db0b60e01b81149081156106b3575b5015158152f35b6301ffc9a760e01b149050386106ac565b60409060031901126106ea57600435906024356001600160a01b03811681036106ea5790565b600080fd5b60008181526020818152604092838320338452825260ff8484205416156107165750505050565b61071f336109bd565b9084519061072c826108ce565b6042825283820194606036873782511561089757603086538251906001918210156108975790607860218501536041915b818311610829575050506107e757846107c360486103269360449798519889916107b48984019876020b1b1b2b9b9a1b7b73a3937b61d1030b1b1b7bab73a1604d1b8a526102cc815180928d6037890191016108ab565b01036028810189520187610900565b5194859362461bcd60e51b85526004850152518092816024860152858501906108ab565b60648386519062461bcd60e51b825280600483015260248201527f537472696e67733a20686578206c656e67746820696e73756666696369656e746044820152fd5b909192600f81166010811015610883576f181899199a1a9b1b9c1cb0b131b232b360811b901a6108598587610996565b5360041c92801561086f5760001901919061075d565b634e487b7160e01b82526011600452602482fd5b634e487b7160e01b83526032600452602483fd5b634e487b7160e01b81526032600452602490fd5b60005b8381106108be5750506000910152565b81810151838201526020016108ae565b6080810190811067ffffffffffffffff8211176108ea57604052565b634e487b7160e01b600052604160045260246000fd5b90601f8019910116810190811067ffffffffffffffff8211176108ea57604052565b9060009180835282602052604083209160018060a01b03169182845260205260ff60408420541661095257505050565b80835282602052604083208284526020526040832060ff1981541690557ff6391f5c32d9c69d2a47ea670b442974b53935d1edc7fd64eb21e047a839171b339380a4565b9081518110156109a7570160200190565b634e487b7160e01b600052603260045260246000fd5b604051906060820182811067ffffffffffffffff8211176108ea57604052602a82526020820160403682378251156109a7576030905381516001908110156109a757607860218401536029905b808211610a5e575050610a1a5790565b606460405162461bcd60e51b815260206004820152602060248201527f537472696e67733a20686578206c656e67746820696e73756666696369656e746044820152fd5b9091600f81166010811015610ab7576f181899199a1a9b1b9c1cb0b131b232b360811b901a610a8d8486610996565b5360041c918015610aa2576000190190610a0a565b60246000634e487b7160e01b81526011600452fd5b60246000634e487b7160e01b81526032600452fdfea2646970667358221220983b3f3309ca15aff0505335fea84be3d627f4e22408bb396786cec3a281bc5464736f6c634300081300332f8788117e7eff1d82e926ec794901d17c78024a50270940304540a733656f0d60a0346200026057601f62002abb38819003918201601f19168301926001600160401b0392909183851183861017620002655781606092849260409788528339810103126200026057829162000055826200027b565b91602090620000668282016200027b565b6001600160a01b0395909186916200007f91016200027b565b1660805260009384805284835285878620911690818652835260ff87862054161562000227575b507ff7054b28837a3e0f0fcdf0631d7a1f2c54f272601d37d24ed1fa836bd1c2ae94808552848352868520338652835260ff878620541615620001ed575b507f6d5c9827c1f410bbb61d3b2a0a34b6b30492d9a1fd38588edca7ec4562ab9c9b9182855284815285878620921691828652815260ff878620541615620001b3575b5050508160045581600355835190610c1a80830191838310908311176200019f5790829162001e818339039082f09081156200019457501660018060a01b0319600154161760015551611bf090816200029182396080518181816103b50152818161068401526108130152f35b8351903d90823e3d90fd5b634e487b7160e01b84526041600452602484fd5b8285528481528685208286529052858420805460ff19166001179055339160008051602062002a9b8339815191528580a438808062000127565b8085528483528685203386528352868520600160ff198254161790553390339060008051602062002a9b8339815191528780a438620000e4565b8480528483528685208186528352868520805460ff1916600117905533908560008051602062002a9b8339815191528180a438620000a6565b600080fd5b634e487b7160e01b600052604160045260246000fd5b51906001600160a01b0382168203620002605756fe608080604052600436101561001357600080fd5b600090813560e01c90816301ffc9a71461146257508063174fa8d0146113ea578063248a9ca3146113be5780632f2ff15d1461131057806336568abe1461127d57806351959c6414610c3f5780636d6516c014610c2157806372f5d98a14610c0457806391d1485414610bb9578063a217fddf14610b9d578063a956253a14610b62578063b150377414610b27578063bdf72599146103e4578063c31c9c071461039f578063d547741f1461035f5763fe73b27f146100d157600080fd5b3461035c57606036600319011261035c576001600160a01b0360043581811690819003610357576101006114b7565b3360009081527f016058b69bc4f430f8fb5c6c018c4cb578a9d48ab4b287d3ccb1e79b08276abf6020908152604090912054909391907ff7054b28837a3e0f0fcdf0631d7a1f2c54f272601d37d24ed1fa836bd1c2ae949060ff161561019c57509161018391600594936040519261017784611856565b83521683820152611a65565b835252604081206101976044358254611921565b905580f35b846101a63361193f565b6040516101b281611871565b604281528281019360603686378151156103415760308553815160019081101561034157607860218401536041905b8082116102e75750506102a4579061026d60486044949360405196879161025e8784019676020b1b1b2b9b9a1b7b73a3937b61d1030b1b1b7bab73a1604d1b8852610235815180928b603789019101611833565b8401917001034b99036b4b9b9b4b733903937b6329607d1b603784015251809386840190611833565b0103602881018752018561188c565b61029660405194859362461bcd60e51b8552600485015251809281602486015285850190611833565b601f01601f19168101030190fd5b6064836040519062461bcd60e51b825280600483015260248201527f537472696e67733a20686578206c656e67746820696e73756666696369656e746044820152fd5b9091600f81166010811015610341576f181899199a1a9b1b9c1cb0b131b232b360811b901a610316848661192e565b5360041c91801561032b5760001901906101e1565b634e487b7160e01b600052601160045260246000fd5b634e487b7160e01b600052603260045260246000fd5b600080fd5b80fd5b503461035c57604036600319011261035c5761039c60043561037f6114b7565b90808452836020526103976001604086200154611728565b6118ad565b80f35b503461035c578060031936011261035c576040517f00000000000000000000000000000000000000000000000000000000000000006001600160a01b03168152602090f35b503461035c578060031936011261035c576103fd61152d565b600a5480610a5e576006805468010000000000000000928382116108ae5781600a55808210610a0a575b50600080516020611b9b833981519152600a600052600080516020611b7b833981519152906000905b8382106109b75750505050825b81548110156104ff576104d69082600052600161049361048e83831b600080516020611b9b83398151915201611aef565b611a65565b86526020906005825260408720600983528160408920918083036104ed575b50505060078252600b60408820925260408720918083036104db575b505050611ab8565b61045d565b805483558101549101553880806104ce565b805483558101549101553881816104b2565b5060005b815481101561055f5761055a90826000526000600161053661048e84831b600080516020611b9b83398151915201611aef565b82526007602060058152838360408220828155015552604082208281550155611ab8565b610503565b508054906000815581610960575b50506003546001810180911161094c578060035560045560025490811015610938576001810180600255811015610924576002825242907f405787fa12a823e0f2b7631cc41b3ba8828b3321ca811111fa75cd3aa3bb5ace0155600a54815b8181106105d7578280f35b6105e96105e382611ac7565b50611aef565b906105f382611a65565b80855260096020526040852060405161060b81611856565b81548082526001909201546020918201528451940151604051946001600160a01b03908116911660a086018087116001600160401b03909111176108ae5760a0860160405281865260208601528160408601528660608601528660808601526040519163095ea7b360e01b602084015260018060a01b037f00000000000000000000000000000000000000000000000000000000000000001660248401526044830152604482528160808101106001600160401b036080840111176108ae5781879291608084930160405282602083519301915af13d1561091d573d6001600160401b0381116108ae576040519061070d601f8201601f19166020018361188c565b81523d87602083013e5b816108ee575b50156108c4578251602084015160408086015160608701516080909701519151966001600160a01b03928316949093919291821691166001600160401b036101008901908111908911176108ae57610100880160409081529088526020808901928352610bb8828a019081523360608b019081524260808c0190815260a08c0196875260c08c0197885260e08c01988952935163414bf38960e01b81529a516001600160a01b0390811660048d01529451851660248c0152905162ffffff1660448b015251831660648a015290516084890152915160a4880152915160c48701529151811660e4860152849061010490829089907f0000000000000000000000000000000000000000000000000000000000000000165af19081156108a357859161086d575b61086893508552600560205261086160016040872001918254611921565b9055611ab8565b6105cc565b90506020833d60201161089b575b816108886020938361188c565b8101031261035757610868925190610843565b3d915061087b565b6040513d87823e3d90fd5b634e487b7160e01b600052604160045260246000fd5b60405162461bcd60e51b8152602060048201526002602482015261534160f01b6044820152606490fd5b8051801592508215610903575b50503861071d565b6109169250602080918301019101611a4d565b38806108fb565b6060610717565b634e487b7160e01b82526032600452602482fd5b634e487b7160e01b82526041600452602482fd5b634e487b7160e01b83526011600452602483fd5b6001600160ff1b038216820361032b57600052600190811b600080516020611b9b8339815191520190600080516020611b9b8339815191525b8281106109a6575061056d565b600080825582820155600201610999565b8060019184036109d2575b6002809101930191019091610450565b818060a01b03808254166bffffffffffffffffffffffff60a01b908187541617865583918287019284015416908254161790556109c2565b6001600160ff1b03818116820361032b578216820361032b576001600080516020611b7b83398151915291811b82019183821b015b828110610a4d575050610427565b600080825582820155600201610a3f565b60405162461bcd60e51b815260206004820152608960248201527f6c6173745f616e645f6e656564735f656e7472795f746f5f726f6f742069732060448201527f6e6f7420656d7074792c20796f75206e65656420746f2063616c6c207570646160648201527f7465526f6f7420746f2067657420746865206c61737420726f6f7420696e746f60848201527f2074686520534d54206265666f726520796f7520706572666f726d206120737760a48201526830b8103130ba31b41760b91b60c482015260e490fd5b503461035c578060031936011261035c5760206040517f6d5c9827c1f410bbb61d3b2a0a34b6b30492d9a1fd38588edca7ec4562ab9c9b8152f35b503461035c578060031936011261035c5760206040517ff7054b28837a3e0f0fcdf0631d7a1f2c54f272601d37d24ed1fa836bd1c2ae948152f35b503461035c578060031936011261035c57602090604051908152f35b503461035c57604036600319011261035c576040610bd56114b7565b91600435815280602052209060018060a01b0316600052602052602060ff604060002054166040519015158152f35b503461035c578060031936011261035c576020604051610bb88152f35b503461035c578060031936011261035c576020600354604051908152f35b503461035c57608036600319011261035c576004356001600160401b03811161127957610c709036906004016114cd565b916024356001600160401b03811161127957610c909036906004016114cd565b91906044356001600160401b03811161127557610cb19036906004016114fd565b9390956064356001600160401b03811161127157610cd39036906004016114fd565b969092610cde61152d565b600a5480156111ba5780841490816111b0575b50806111a7575b8061119e575b1561112457855b89600a54821015610fe6578987878a9387868e610d246105e383611ac7565b96610d2e88611a65565b8952600b602052604089209860016040519a610d498c611856565b80548c52015460208b0152508a8d84610fb95750506001546040516335a5cfcb60e01b8152975060209650879550600494508593506001600160a01b03169150505afa908115610fae578892878f928f8f908f8f99978e908c958e9391610f44575b5092610dce86610dd494610dc88280999896610ddb9b979c611b2b565b9e611b2b565b9a611b1b565b3595611b1b565b356008549160018060a01b036020818651169501511694610e236020885198015198610e186040519b6370ed4b8160e01b8d5260048d0190611b3b565b6101048b0190611b3b565b6102048901526102248801526102448701526102648601526102848501526102a48401526102c48301526102e48201526020816103048173__$dc3f29d2aa147a13f516383a5a41ac843d$__5af4908115610f39578891610f0a575b5015610e9f5780610e94610e9a928a8d611b1b565b50611ab8565b610d05565b60405162461bcd60e51b815260206004820152603960248201527f796f7520646964206e6f7420757064617465207468652070726963657320726960448201527f676874203a282c20636865636b20796f75722070726f6f6673000000000000006064820152608490fd5b610f2c915060203d602011610f32575b610f24818361188c565b810190611a4d565b38610e7f565b503d610f1a565b6040513d8a823e3d90fd5b999b50505050505050509250506020813d602011610fa6575b81610f6a6020938361188c565b81010312610fa257918c889287610ddb8f8f610dd48f998b938f858f610dc882610dce9481975196999a509650505094509650610dab565b8980fd5b3d9150610f5d565b6040513d8c823e3d90fd5b938392610dce82610dd494610dc89c9e9c828c9d9f9c9a610fdf82809c610ddb9e611b1b565b359c611b2b565b8888805b600a54811015611035578061100761048e6105e361103094611ac7565b835282602060098152600b60408320918383558360018094015552604082208281550155611ab8565b610fea565b5090600a5482600a55806110d9575b506001546000198201936001600160a01b0390911691908185116110c5579361106e918495611b1b565b3590803b156110c15760248392604051948593849263f2f5a7e560e01b845260048401525af180156110b6576110a2575080f35b6001600160401b0381116109385760405280f35b6040513d84823e3d90fd5b5050fd5b634e487b7160e01b84526011600452602484fd5b6001600160ff1b038116810361094c57600a83526001600080516020611b7b83398151915291811b8201915b828110611113575050611044565b808560029255858382015501611105565b60405162461bcd60e51b815260206004820152604660248201527f75706461746550726f6f667320616e64206e6577526f6f7473206d757374206260448201527f65207468652073616d65206c656e677468206173206e756d206f66207377617060648201526520706169727360d01b608482015260a490fd5b50868114610cfe565b50868814610cf8565b9050871438610cf1565b60405162461bcd60e51b815260206004820152607d60248201527f6c6173745f616e645f6e656564735f656e7472795f746f5f726f6f742069732060448201527f656d7074792c20796f75206e65656420746f2063616c6c20646f53776170207460648201527f6f2067657420746865206c61737420626174636820696e746f2074686520534d60848201527f54206265666f726520796f75207570646174652074686520726f6f742e00000060a482015260c490fd5b8480fd5b8280fd5b5080fd5b503461035c57604036600319011261035c576112976114b7565b336001600160a01b038216036112b35761039c906004356118ad565b60405162461bcd60e51b815260206004820152602f60248201527f416363657373436f6e74726f6c3a2063616e206f6e6c792072656e6f756e636560448201526e103937b632b9903337b91039b2b63360891b6064820152608490fd5b503461035c57604036600319011261035c5760043561132d6114b7565b818352826020526113446001604085200154611728565b818352602083815260408085206001600160a01b039093168086529290915283205460ff1615611372578280f35b818352826020526040832081845260205260408320600160ff1982541617905533917f2f8788117e7eff1d82e926ec794901d17c78024a50270940304540a733656f0d8480a438808280f35b503461035c57602036600319011261035c57600160406020926004358152808452200154604051908152f35b503461035c57602036600319011261035c57600154604051633fd861a760e01b8152600480359082015290602090829060249082906001600160a01b03165afa9081156110b65760209291611445575b506040519015158152f35b61145c9150823d8111610f3257610f24818361188c565b3861143a565b9050346112795760203660031901126112795760043563ffffffff60e01b81168091036112755760209250637965db0b60e01b81149081156114a6575b5015158152f35b6301ffc9a760e01b1490503861149f565b602435906001600160a01b038216820361035757565b9181601f84011215610357578235916001600160401b038311610357576020808501948460081b01011161035757565b9181601f84011215610357578235916001600160401b038311610357576020808501948460051b01011161035757565b3360009081527fc748e564f3b67d777128c175b8f51af1229a55070ce08662ef69b06b4c56ecd96020908152604080832054909291907f6d5c9827c1f410bbb61d3b2a0a34b6b30492d9a1fd38588edca7ec4562ab9c9b9060ff16156115935750505050565b61159c3361193f565b908451906115a982611871565b6042825283820194606036873782511561171457603086538251906001918210156117145790607860218501536041915b8183116116a657505050611664578461164060486102969360449798519889916116318984019876020b1b1b2b9b9a1b7b73a3937b61d1030b1b1b7bab73a1604d1b8a52610235815180928d603789019101611833565b0103602881018952018761188c565b5194859362461bcd60e51b8552600485015251809281602486015285850190611833565b60648386519062461bcd60e51b825280600483015260248201527f537472696e67733a20686578206c656e67746820696e73756666696369656e746044820152fd5b909192600f81166010811015611700576f181899199a1a9b1b9c1cb0b131b232b360811b901a6116d6858761192e565b5360041c9280156116ec576000190191906115da565b634e487b7160e01b82526011600452602482fd5b634e487b7160e01b83526032600452602483fd5b634e487b7160e01b81526032600452602490fd5b60008181526020818152604092838320338452825260ff84842054161561174f5750505050565b6117583361193f565b9084519061176582611871565b6042825283820194606036873782511561171457603086538251906001918210156117145790607860218501536041915b8183116117ed57505050611664578461164060486102969360449798519889916116318984019876020b1b1b2b9b9a1b7b73a3937b61d1030b1b1b7bab73a1604d1b8a52610235815180928d603789019101611833565b909192600f81166010811015611700576f181899199a1a9b1b9c1cb0b131b232b360811b901a61181d858761192e565b5360041c9280156116ec57600019019190611796565b60005b8381106118465750506000910152565b8181015183820152602001611836565b604081019081106001600160401b038211176108ae57604052565b608081019081106001600160401b038211176108ae57604052565b90601f801991011681019081106001600160401b038211176108ae57604052565b9060009180835282602052604083209160018060a01b03169182845260205260ff6040842054166118dd57505050565b80835282602052604083208284526020526040832060ff1981541690557ff6391f5c32d9c69d2a47ea670b442974b53935d1edc7fd64eb21e047a839171b339380a4565b9190820180921161032b57565b908151811015610341570160200190565b60405190606082018281106001600160401b038211176108ae57604052602a82526020820160403682378251156103415760309053815160019081101561034157607860218401536029905b8082116119df57505061199b5790565b606460405162461bcd60e51b815260206004820152602060248201527f537472696e67733a20686578206c656e67746820696e73756666696369656e746044820152fd5b9091600f81166010811015611a38576f181899199a1a9b1b9c1cb0b131b232b360811b901a611a0e848661192e565b5360041c918015611a2357600019019061198b565b60246000634e487b7160e01b81526011600452fd5b60246000634e487b7160e01b81526032600452fd5b90816020910312610357575180151581036103575790565b60208151910151906040519060208201926bffffffffffffffffffffffff19809260601b16845260601b16603482015260288152606081018181106001600160401b038211176108ae5760405251902090565b600019811461032b5760010190565b600a5481101561034157600a60005260011b600080516020611b7b8339815191520190600090565b90604051611afc81611856565b82546001600160a01b0390811682526001909301549092166020830152565b91908110156103415760051b0190565b91908110156103415760081b0190565b90604091828183378083016000848481015b60028310611b63575050505060c0809101910137565b908082818660019537019301910190918590611b4d56fec65a7bb8d6351c1cf70c95a316cc6a92839c986682d98bc35f958f4883f9d2a8f652222313e28459528d920b65115c16c04f3efc82aaedc97be59f3f377c0d3fa26469706673582212209937a47920a34fb88973b6ad76c49542f10de1d13916d12d960c433c0806434564736f6c6343000813003360806040818152346100f257600090818052602090828252808320338452825260ff8184205416156100bc575b7ff7054b28837a3e0f0fcdf0631d7a1f2c54f272601d37d24ed1fa836bd1c2ae9491828452838152818420338552815260ff828520541615610083575b5050508060015580600255606855610b0290816100f88239f35b82845283815281842090338552528220600160ff1982541617905533903390600080516020610bfa8339815191528480a4388080610069565b8280528282528083203384528252808320600160ff19825416179055333384600080516020610bfa8339815191528180a461002c565b600080fdfe6080604081815260048036101561001557600080fd5b600092833560e01c90816301ffc9a71461067057508063248a9ca3146106475780632f2ff15d146105a957806335a5cfcb1461058a57806336568abe146105025780633fd861a7146104d657806391d148541461049c578063a217fddf14610481578063a956253a14610446578063d547741f1461040e5763f2f5a7e51461009c57600080fd5b3461040a5760209182600319360112610406578135927ff7054b28837a3e0f0fcdf0631d7a1f2c54f272601d37d24ed1fa836bd1c2ae94808652858252828620338752825260ff83872054161561022757508385526067815260ff82862054166101da576001928354606481146000146101c8575060025460648110156101b5576003015486526067825282862060ff1981541690556002548481018091116101a257606490066002555b600254845481018091116101a25760001981019081116101a2576064900690606482101561018f57509084606792600301558486525283209060ff1982541617905560685580f35b634e487b7160e01b875260329052602486fd5b634e487b7160e01b875260118252602487fd5b634e487b7160e01b875260328252602487fd5b60001981146101a25784018455610147565b905162461bcd60e51b8152918201526024808201527f456c656d656e7420697320616c726561647920696e2074686520636f6c6c65636044820152633a34b7b760e11b6064820152608490fd5b90935084610234336109bd565b91835190610241826108ce565b604282528682019260603685378251156103f357603084538251906001918210156103e05790607860218501536041915b81831161037557505050610334578361030460488895610326956102f59560449a99519687936102cc8b86019b76020b1b1b2b9b9a1b7b73a3937b61d1030b1b1b7bab73a1604d1b8d5282519283916037890191016108ab565b8401917001034b99036b4b9b9b4b733903937b6329607d1b6037840152518093868401906108ab565b01036028810185520183610900565b5195869462461bcd60e51b8652850152518092816024860152858501906108ab565b601f01601f19168101030190fd5b606485878087519262461bcd60e51b845283015260248201527f537472696e67733a20686578206c656e67746820696e73756666696369656e746044820152fd5b909192600f811660108110156103cd576f181899199a1a9b1b9c1cb0b131b232b360811b901a6103a58587610996565b53881c9280156103ba57600019019190610272565b634e487b7160e01b825260118952602482fd5b634e487b7160e01b835260328a52602483fd5b634e487b7160e01b815260328852602490fd5b634e487b7160e01b815260328752602490fd5b8380fd5b8280fd5b50503461044257600161043f9161043a610427366106c4565b93909283875286602052862001546106ef565b610922565b80f35b5080fd5b505034610442578160031936011261044257602090517ff7054b28837a3e0f0fcdf0631d7a1f2c54f272601d37d24ed1fa836bd1c2ae948152f35b50503461044257816003193601126104425751908152602090f35b5050346104425760ff816020936104b2366106c4565b9082528186528282206001600160a01b039091168252855220549151911615158152f35b503461040a57602036600319011261040a578160209360ff923581526067855220541690519015158152f35b5082903461044257610513366106c4565b91336001600160a01b0384160361052f57509061043f91610922565b608490602086519162461bcd60e51b8352820152602f60248201527f416363657373436f6e74726f6c3a2063616e206f6e6c792072656e6f756e636560448201526e103937b632b9903337b91039b2b63360891b6064820152fd5b5050346104425781600319360112610442576020906068549051908152f35b505034610442576105b9366106c4565b9091828452836020526105d1600182862001546106ef565b82845260208481528185206001600160a01b039093168086529290528084205460ff16156105fd578380f35b828452836020528084208285526020528320600160ff1982541617905533917f2f8788117e7eff1d82e926ec794901d17c78024a50270940304540a733656f0d8480a43880808380f35b503461040a57602036600319011261040a57816020936001923581528085522001549051908152f35b9250503461040a57602036600319011261040a573563ffffffff60e01b811680910361040a5760209250637965db0b60e01b81149081156106b3575b5015158152f35b6301ffc9a760e01b149050386106ac565b60409060031901126106ea57600435906024356001600160a01b03811681036106ea5790565b600080fd5b60008181526020818152604092838320338452825260ff8484205416156107165750505050565b61071f336109bd565b9084519061072c826108ce565b6042825283820194606036873782511561089757603086538251906001918210156108975790607860218501536041915b818311610829575050506107e757846107c360486103269360449798519889916107b48984019876020b1b1b2b9b9a1b7b73a3937b61d1030b1b1b7bab73a1604d1b8a526102cc815180928d6037890191016108ab565b01036028810189520187610900565b5194859362461bcd60e51b85526004850152518092816024860152858501906108ab565b60648386519062461bcd60e51b825280600483015260248201527f537472696e67733a20686578206c656e67746820696e73756666696369656e746044820152fd5b909192600f81166010811015610883576f181899199a1a9b1b9c1cb0b131b232b360811b901a6108598587610996565b5360041c92801561086f5760001901919061075d565b634e487b7160e01b82526011600452602482fd5b634e487b7160e01b83526032600452602483fd5b634e487b7160e01b81526032600452602490fd5b60005b8381106108be5750506000910152565b81810151838201526020016108ae565b6080810190811067ffffffffffffffff8211176108ea57604052565b634e487b7160e01b600052604160045260246000fd5b90601f8019910116810190811067ffffffffffffffff8211176108ea57604052565b9060009180835282602052604083209160018060a01b03169182845260205260ff60408420541661095257505050565b80835282602052604083208284526020526040832060ff1981541690557ff6391f5c32d9c69d2a47ea670b442974b53935d1edc7fd64eb21e047a839171b339380a4565b9081518110156109a7570160200190565b634e487b7160e01b600052603260045260246000fd5b604051906060820182811067ffffffffffffffff8211176108ea57604052602a82526020820160403682378251156109a7576030905381516001908110156109a757607860218401536029905b808211610a5e575050610a1a5790565b606460405162461bcd60e51b815260206004820152602060248201527f537472696e67733a20686578206c656e67746820696e73756666696369656e746044820152fd5b9091600f81166010811015610ab7576f181899199a1a9b1b9c1cb0b131b232b360811b901a610a8d8486610996565b5360041c918015610aa2576000190190610a0a565b60246000634e487b7160e01b81526011600452fd5b60246000634e487b7160e01b81526032600452fdfea2646970667358221220983b3f3309ca15aff0505335fea84be3d627f4e22408bb396786cec3a281bc5464736f6c634300081300332f8788117e7eff1d82e926ec794901d17c78024a50270940304540a733656f0d2f8788117e7eff1d82e926ec794901d17c78024a50270940304540a733656f0d2f8788117e7eff1d82e926ec794901d17c78024a50270940304540a733656f0d",
    "linkReferences": {
      "src/SMTMembershipVerifier.sol": {
        "SMTMembershipVerifier": [
          {
            "start": 1331,
            "length": 20
          },
          {
            "start": 2504,
            "length": 20
          },
          {
            "start": 2711,
            "length": 20
          },
          {
            "start": 2844,
            "length": 20
          },
          {
            "start": 3971,
            "length": 20
          },
          {
            "start": 4158,
            "length": 20
          },
          {
            "start": 4498,
            "length": 20
          },
          {
            "start": 5730,
            "length": 20
          },
          {
            "start": 5929,
            "length": 20
          },
          {
            "start": 6234,
            "length": 20
          },
          {
            "start": 7156,
            "length": 20
          },
          {
            "start": 8453,
            "length": 20
          },
          {
            "start": 8586,
            "length": 20
          },
          {
            "start": 8857,
            "length": 20
          }
        ]
      },
      "src/WellFormedTicketVerifier.sol": {
        "WellFormedTicketVerifier": [
          {
            "start": 1013,
            "length": 20
          },
          {
            "start": 2342,
            "length": 20
          },
          {
            "start": 3845,
            "length": 20
          },
          {
            "start": 5645,
            "length": 20
          },
          {
            "start": 7105,
            "length": 20
          },
          {
            "start": 8181,
            "length": 20
          },
          {
            "start": 8271,
            "length": 20
          },
          {
            "start": 8722,
            "length": 20
          }
        ]
      },
      "src/swap/SwapProofVerifier.sol": {
        "SwapProofVerifier": [
          {
            "start": 4361,
            "length": 20
          },
          {
            "start": 6097,
            "length": 20
          },
          {
            "start": 20368,
            "length": 20
          }
        ]
      }
    }
  },
  "methodIdentifiers": {
    "DEFAULT_ADMIN_ROLE()": "a217fddf",
    "SEQUENCER_ROLE()": "4842855c",
    "burnSwapToP2SKH((uint256[2],uint256[2][2],uint256[2]),uint256,uint256,(uint256[2],uint256[2][2],uint256[2]),uint256,(uint256[2],uint256[2][2],uint256[2]),uint256,(uint256[2],uint256[2][2],uint256[2]),uint256,uint256,uint256,(uint256[2],uint256[2][2],uint256[2]),uint256)": "7916191e",
    "deposit((uint256[2],uint256[2][2],uint256[2]),uint256,(uint256[2],uint256[2][2],uint256[2]),uint256,address,uint256,address)": "df5e12a5",
    "getRoleAdmin(bytes32)": "248a9ca3",
    "grantRole(bytes32,address)": "2f2ff15d",
    "hasRole(bytes32,address)": "91d14854",
    "mergeP2SKH((uint256[2],uint256[2][2],uint256[2]),(uint256[2],uint256[2][2],uint256[2]),(uint256[2],uint256[2][2],uint256[2]),(uint256[2],uint256[2][2],uint256[2]),uint256,uint256,uint256,uint256,uint256,uint256,(uint256[2],uint256[2][2],uint256[2]),(uint256[2],uint256[2][2],uint256[2]),uint256,uint256)": "2f8534eb",
    "renounceRole(bytes32,address)": "36568abe",
    "revokeRole(bytes32,address)": "d547741f",
    "setup_swap((uint256[2],uint256[2][2],uint256[2]),uint256,(uint256[2],uint256[2][2],uint256[2]),uint256,uint256,(uint256[2],uint256[2][2],uint256[2]),uint256,(uint256[2],uint256[2][2],uint256[2]),uint256,(uint256[2],uint256[2][2],uint256[2]),uint256,address,address,uint256)": "711c91c2",
    "splitP2SKH((uint256[2],uint256[2][2],uint256[2]),(uint256[2],uint256[2][2],uint256[2]),uint256,uint256,uint256,(uint256[2],uint256[2][2],uint256[2]),(uint256[2],uint256[2][2],uint256[2]),(uint256[2],uint256[2][2],uint256[2]),uint256,uint256,uint256,uint256)": "81196802",
    "supportsInterface(bytes4)": "01ffc9a7",
    "withdraw((uint256[2],uint256[2][2],uint256[2]),uint256,(uint256[2],uint256[2][2],uint256[2]),uint256,uint256,(uint256[2],uint256[2][2],uint256[2]),uint256,address,uint256,address)": "56e7fafe"
  },
  "id": 45
}