{
  "abi": [
    {
      "inputs": [
        {
          "internalType": "uint256[2]",
          "name": "a",
          "type": "uint256[2]"
        },
        {
          "internalType": "uint256[2][2]",
          "name": "b",
          "type": "uint256[2][2]"
        },
        {
          "internalType": "uint256[2]",
          "name": "c",
          "type": "uint256[2]"
        },
        {
          "internalType": "uint256[3]",
          "name": "input",
          "type": "uint256[3]"
        }
      ],
      "name": "verifyProof",
      "outputs": [
        {
          "internalType": "bool",
          "name": "r",
          "type": "bool"
        }
      ],
      "stateMutability": "view",
      "type": "function"
    }
  ],
  "bytecode": {
    "object": "0x6080806040523461001657611012908161001c8239f35b600080fdfe604060808152600436101561001357600080fd5b6000803560e01c6311479fea1461002957600080fd5b346100be576101603660031901126100be5761004436610165565b9036606312156100be576100566100d8565b908160c4913683116100be57506044905b8282106100a5576100a1866100908787610080366101a7565b9061008a36610225565b9261048d565b905190151581529081906020820190565b0390f35b602086916100b336856101e5565b815201910190610067565b80fd5b50634e487b7160e01b600052604160045260246000fd5b604051906040820182811067ffffffffffffffff8211176100f857604052565b6101006100c1565b604052565b604051906060820182811067ffffffffffffffff8211176100f857604052565b604051906080820182811067ffffffffffffffff8211176100f857604052565b6040519060a0820182811067ffffffffffffffff8211176100f857604052565b80602312156101a2576101766100d8565b908160449182116101a2576004905b8282106101925750505090565b8135815260209182019101610185565b600080fd5b8060e312156101a2576101b86100d8565b90816101049182116101a25760c4905b8282106101d55750505090565b81358152602091820191016101c8565b9080601f830112156101a2576101f96100d8565b8092604081019283116101a257905b8282106102155750505090565b8135815260209182019101610208565b8061012312156101a257610237610105565b90816101649182116101a257610104905b8282106102555750505090565b8135815260209182019101610248565b604051906020820182811067ffffffffffffffff82111761028b575b6040526020368337565b6102936100c1565b610281565b6102a06100d8565b906102a96100d8565b604036823782526102b86100d8565b60403682376020830152565b604051906060820182811067ffffffffffffffff821117610320575b604052816102ec6100d8565b60008152600060208201528152610301610298565b602082015260406103106100d8565b9160008352600060208401520152565b6103286100c1565b6102e0565b50634e487b7160e01b600052603260045260246000fd5b60209067ffffffffffffffff811161035e575b60051b0190565b6103666100c1565b610357565b610373610125565b60038152906060366020840137565b9061038c82610344565b60405190601f1990601f018116820167ffffffffffffffff8111838210176103c9575b6040528382526103bf8294610344565b0190602036910137565b6103d16100c1565b6103af565b50634e487b7160e01b600052601160045260246000fd5b60019060001981146103fd570190565b6104056103d6565b0190565b90600381101561041a5760051b0190565b61036661032d565b602090805115610430570190565b61040561032d565b604090805160011015610430570190565b606090805160021015610430570190565b608090805160031015610430570190565b6020918151811015610480575b60051b010190565b61048861032d565b610478565b929190926104996102c4565b9381516020809301516104aa6100d8565b9182528382015285526104bb6100d8565b9080515182526104cc815160200190565b51838301526104eb836104dd6100d8565b920180515183525160200190565b51838201526104f86100d8565b9182528282015281850152808251920151906105126100d8565b928352820152604083015261052561036b565b9060005b6003811061054b5750509061053d9161064c565b61054657600190565b600090565b8061055961056a9284610409565b51610564828661046b565b526103ed565b610529565b906001820180921161057d57565b6105856103d6565b565b906002820180921161057d57565b906003820180921161057d57565b906004820180921161057d57565b906005820180921161057d57565b156105c657565b60405162461bcd60e51b81526020600482015260126024820152711d995c9a599a595c8b5898590b5a5b9c1d5d60721b6044820152606490fd5b1561060757565b60405162461bcd60e51b815260206004820152601f60248201527f76657269666965722d6774652d736e61726b2d7363616c61722d6669656c64006044820152606490fd5b919091610657610c35565b91610662825161056f565b906106746080850192835151146105bf565b61067c6100d8565b6000815260006020820152946000955b845187101561070c57610700610706916106d17f30644e72e131a029b85045b68181585d2833e84879b9709143e1f593f00000016106ca8b8a61046b565b5110610600565b6106fa6106e887516106e28c61056f565b9061046b565b516106f38b8a61046b565b519061085b565b90610803565b966103ed565b9561068c565b61075e9592965061075a945061072661072d929451610422565b5190610803565b91610738815161076c565b92602082015183516020850151916060604080880151960151960151966108e6565b1590565b61076757600090565b600190565b600060206107786100d8565b8281520152805115806107f7575b6107e05760208151917f30644e72e131a029b85045b68181585d97816a916871ca8d3c208c16d87cfd4791829101510681039081116107d3575b6107c86100d8565b918252602082015290565b6107db6103d6565b6107c0565b506107e96100d8565b600081526000602082015290565b50602081015115610786565b60609092919260c06108136100d8565b916000835260006020840152602083968161082c610125565b936080368637805185520151828401528051604084015201518482015260066107cf195a01fa1561085957565bfe5b606090929192608061086b6100d8565b91600083526000602084015282956020610883610105565b92863685378051845201516020830152604082015260076107cf195a01fa1561085957565b6108b0610145565b6004815290600082815b608081106108c757505050565b6020906108d26100d8565b8481528285818301528285010152016108ba565b979693949291956108f56108a8565b956108fe610145565b976004895260005b608081106109bc57506109b9999a61091d89610422565b5261092788610422565b5061093188610438565b5261093b87610438565b5061094587610449565b5261094f86610449565b506109598661045a565b526109638561045a565b5061096d86610422565b5261097785610422565b5061098185610438565b5261098b84610438565b5061099584610449565b5261099f83610449565b506109a98361045a565b526109b38261045a565b50610a72565b90565b6020906109c7610298565b82828d01015201610906565b156109da57565b60405162461bcd60e51b81526020600482015260166024820152751c185a5c9a5b99cb5b195b99dd1a1ccb59985a5b195960521b6044820152606490fd5b9060068202918083046006149015171561057d57565b15610a3557565b60405162461bcd60e51b81526020600482015260156024820152741c185a5c9a5b99cb5bdc18dbd9194b59985a5b1959605a1b6044820152606490fd5b610a7f81518351146109d3565b8051610a8a81610a18565b92610a9484610382565b9260005b838110610ad657505050506020918291610ab0610265565b93849260051b910160086107cf195a01fa801561085957610ad090610a2e565b51151590565b80610ae4610bc0928461046b565b5151610af8610af283610a18565b8861046b565b52610bab602080610b09848761046b565b510151610b26610b20610b1b86610a18565b61056f565b8a61046b565b52610b31838761046b565b515151610b48610b20610b4386610a18565b610587565b52610b5e610b56848861046b565b515160200190565b51610b73610b20610b6e86610a18565b610595565b5280610b7f848861046b565b51015151610b97610b20610b9286610a18565b6105a3565b52610ba2838761046b565b51015160200190565b51610564610af2610bbb84610a18565b6105b1565b610a98565b6040519060a0820182811067ffffffffffffffff821117610c28575b6040526060608083610bf16100d8565b60008152600060208201528152610c06610298565b6020820152610c13610298565b6040820152610c20610298565b838201520152565b610c306100c1565b610be1565b610c3d610bc5565b90610fd9610c496100d8565b7f2d4d9aa7e302d9df41749d5507949d05dbea33fbb16c643b22f599a2be6df2e281526020907f14bedd503c37ceb061d8ec60209fe345ce89830a19230301f076caff004d1926828201528452610c9e6100d8565b7f0967032fcbf776d1afc985f88877f182d38480a653f2decaa9794cbc3bf3060c81527f0e187847ad4c798374d0d6732bf501847dd68bc0e071241e0213bc7fc13db7ab82820152610cee6100d8565b7f304cfbd1e08a704a99f5e847d93f8c3caafddec46b7a0d379da69a4d112346a781527f1739c1b1a457a8c7313123d24d2f9192f896b7c63eea05a9d57f06547ad0cec883820152610d3e6100d8565b9182528282015281850152610d516100d8565b7f198e9393920d483a7260bfb731fb5d25f1aa493335a9e71297e485b7aef312c2908181527f1800deef121f1e76426a00665e5c4479674322d4f75edadd46debd5cd992f6ed8084830152610da46100d8565b907f090689d0585ff075ec9e99ad690c3395bc4b313370b38ef355acdadcd122975b928383527f12c85ea5db8c6deb4aab71808dcb408fe3d1e7690c43d37b4ce6cc0166fa7daa928387820152610df96100d8565b918252868201526040890152610e0d6100d8565b93845284840152610e1c6100d8565b91825283820152610e2b6100d8565b918252828201526060850152610e3f6108a8565b60808501908152610eab610e516100d8565b7f172bb34289cb13cf3d1562dd5b581f343dcfc3deba092ff57eea919d541b0a4e81527f2b8e65633e592cbb620f78e085fcbc3efd46b21d5d36ce37603ef11a4b7d140284820152825190610ea582610422565b52610422565b50610f11610eb76100d8565b7f24fe730ca446485b224304c77ff69563bd6e518738da70056a69fd21fda4260881527f2fd8aceeabf521fde70323c302572db214d33e022f5d0b2dcd821b1480eb736484820152825190610f0b82610438565b52610438565b50610f77610f1d6100d8565b7f14a0acfca1e139e1f6b61f864f243ad998ca1ee4cf3ed8e1dd660b55f3ff793f81527f29c50354b46e5e8633b79e192f1539a4b9865fa58ef4dc57e521edc50916cc1e84820152825190610f7182610449565b52610449565b507f27657f081804ef30dedae05415ab8128726f27981767c2df94ebd326d7d6dd15610fa16100d8565b927f28f7db38e3d82d10d4561598337bdf9e1c9326a814fe2f0c731c2de1e7c2cb7084528301525190610fd38261045a565b5261045a565b5056fea26469706673582212203ecfdd289eb81c7e5e39ec76c408eb0e8f35088dcf91f9362f9df8dd3d5b055264736f6c63430008110033",
    "linkReferences": {}
  },
  "methodIdentifiers": {
    "verifyProof(uint256[2],uint256[2][2],uint256[2],uint256[3])": "11479fea"
  },
  "id": 4
}